:0200000280007C
:10000000A02607204D0B0800490B0800490B0800EB
:10001000490B0800490B0800490B080000000000CC
:10002000000000000000000000000000D9010800EE
:10003000490B080000000000110208004D020800F2
:10004000490B0800490B0800490B0800490B080040
:10005000490B0800490B0800490B0800490B080030
:10006000490B0800490B080000000000BD0908000A
:10007000D1090800E5090800F9090800000000009E
:1000800000000000490B0800490B0800490B08005C
:10009000490B0800490B0800490B0800490B0800F0
:1000A000490B080000000000490B0800490B08003C
:1000B000490B0800490B0800490B0800490B0800D0
:1000C000490B0800490B0800490B0800490B0800C0
:1000D000490B0800490B0800490B0800490B0800B0
:1000E000490B0800490B0800490B0800490B0800A0
:1000F000490B080010B5054C237833B9044B13B1F4
:100100000448AFF300800123237010BD640507206D
:1001100000000000E40E08000C4B43B10C4810B581
:100120000C49AFF300800C48036823B910BD0A489E
:10013000036833B97047094B002BF7D0BDE8104076
:100140001847064B002BF5D0184700BF00000000F1
:10015000E40E080068050720E40E08000000000017
:1001600010B489014318022444504FF0FF319962C2
:10017000196A5A6010BC7047C0F8C41070478901F2
:10018000052343507047890102234350704700EB19
:1001900081110869704743685A684A6042688A60FA
:1001A0005A689160596041600861036801330360D7
:1001B0007047436882689A60836842685A6003693E
:1001C0005A68904204BF82685A60002202611A682D
:1001D000013A1A6018687047064B19680868B0E859
:1001E000F00F80F309884FF0000080F311884EF083
:1001F0000D0E704780050720EFF311804FF0A0012E
:1002000081F311887047002080F311887047000047
:10021000EFF309800C4B1A6820E9F00F10602DE90C
:1002200008404FF0A00080F3118800F0B9F84FF0BB
:10023000000080F31188BDE8084019680868B0E83C
:10024000F00F80F3098870478005072008B54FF04C
:100250008052054B1A60054B9847054B9847002084
:10026000044B984708BD00BF04ED00E0F901080009
:1002700079020800090208003D4B1B68002B6FD172
:100280002DE9F0413B4B1A6801321A601B68ABB98B
:10029000394B1B681B68002B28D1374B1968374A2C
:1002A00010681860116036490A6801320A601B68DC
:1002B0001B68FBB94FF0FF32324B1A602D4B1A68A6
:1002C000304B1B689A4250D32B4B1B681B68CBB139
:1002D000294B1B68DB68DC686368264A1268934216
:1002E00016D8294E294FDFF8B4802FE0284B9847C5
:1002F00000BFFDE7204B1B68DB68DB685A68214BB9
:100300001A60DBE74FF0FF321E4B1A60BDE8F08148
:100310001C4A1360BDE8F081E06A3B68984288BFE0
:10032000386000EB8000294608EB8000194B9847A5
:10033000114B1B681B68002BE4D00F4B1B68DB685C
:10034000DC6863680B4A12689342E1D8251D284691
:10035000B047A36A002BDFD004F11800B047DBE7F9
:100360000D4A1368013313607047BDE8F08100BF88
:10037000F4050720040607208405072088050720C8
:10038000000607202C010720B3010800F80507200C
:10039000F901080097010800F00507208C050720E7
:1003A000214B1B68EBB910B5204B1B6803EB830393
:1003B0009B001F4AD358C3B91C4B1B686BB11B4A27
:1003C0001B491368013B1360136803EB830351F867
:1003D000233053B91368002BF3D1164B984700BF55
:1003E000FDE70122144B1A607047104B1B68104A3E
:1003F0009900C81802EB800044686468446019449E
:1004000002460832944209D003EB8303084A02EB08
:1004100083035B68DA68094B1A6010BD6068044AA0
:1004200002EB81025060EFE7F4050720F805072092
:100430008C050720F9010800FC050720800507202E
:1004400008B5034B98470348034B984708BD00BFC6
:100450006D0608009C0E0800D504080010B51B208E
:10046000084B9847084C002211462046074B9847F6
:1004700000212046064B984700212046054B98470F
:10048000002010BDF50A08000000084061010800C6
:100490007901080087010800F8B5054600210948E0
:1004A000094B98472A2404FB05F4064F0026074D04
:1004B00031463846A847A042FAD300210148044BF0
:1004C0009847F8BD000008407F0108008F01080030
:1004D0008701080070B50446064B9847207838B16C
:1004E0000126054D3146A84714F8010F0028F9D11F
:1004F000002070BD6D060800FD040800F0B585B051
:1005000005460C461D4B0FCB04AE06E90F0006EB6B
:10051000151313F8103CDB055CBB4FF48001184A3F
:10052000516303F0F062164C2263DB4303F0F06387
:1005300063634FF4001727630120124EB0476763CF
:100540006420B04705F00F0504AB1D4415F8103CBE
:10055000DB0503F0F0622263DB4303F0F0636363C7
:1005600027630120B04767636420B047002005B0CF
:10057000F0BD4FF48001024A1163D2E7AC0E0800CF
:1005800000120E40990408002DE9F047344C4FF456
:1005900080072761C4F8A0704FF400152561C4F8E6
:1005A000A0504FF0F0632361C4F8A030656347F2B8
:1005B00030502C4EB04767634FF0806AC4F830A0CB
:1005C0004FF00079C4F830904FF08078C4F8348050
:1005D0004FF40007676325630120B047656341F26C
:1005E0000400B047C4F830A0C4F83090C4F8348098
:1005F000676325630120B04765636420B047C4F892
:1006000030A0C4F83090C4F83480676325630120BB
:10061000B04765636420B047C4F834A0C4F8309094
:10062000C4F83480676325630120B04765636420A4
:10063000B047002128200C4CA04700210820A047EB
:1006400000210120A04740F6B830B0470021062025
:10065000A04700210F20A0470020BDE8F08700BF81
:1006600000120E4099040800FD04080008B500219E
:100670000120044B984740F6B830034B98470020C0
:1006800008BD00BFFD0408009904080010B50E481D
:100690000E4B98473E2100200D4B98470D4CA0472C
:1006A0000028FCD00C4B98470C4A0D4B9A620D4C1D
:1006B000A0470028FCD010200B4B98470B4B9847C5
:1006C0000148024B984710BD00BD0105A500072059
:1006D000710A0800C50A0800D50A0800013F0D206C
:1006E00000060E40E50A08000D0A0800E50B0800A8
:1006F00010B54FF40042124B5A600B20114CA0472A
:100700000C20A0470D20A0470E20A0474FF06051BD
:100710003B200D4CA0474FF060515520A0474FF0B3
:1007200060515620A04709496820A04708495C202D
:10073000A047084A4FF440710748084B984710BD3E
:10074000501A0E40F50A0800010808007900002838
:100750000100002801000008000E0E40D10808002A
:100760004264B1F1805F16D00BD849B1B1F1006F8E
:1007700005D1036F016F0B4023EA02030367426058
:100780007047B1F1405FFBD0B1F1605FF8D0B1F1DB
:10079000205FF4D17047036F13430367EFE74164B1
:1007A00012F0010F14BF4166016612F00A0F14BF68
:1007B0000162416212F0020F07D112F0080F18BF58
:1007C000C0F88410416101607047C0F88010F9E7FB
:1007D00010B4019C416444B9016643B1016542B95A
:1007E00041630161016010BC70474166F5E74165F6
:1007F000F5E70163F5E7C06C7047806C7047000057
:1008000070B582B00D46430903F5001303F2077378
:100810005C0201F0F043B3F1205F31D016D8B3F1A0
:10082000006F1BD0B3F1805F16D100F01F000126CE
:10083000864032464FF080512046224B984715F0B3
:10084000010F14BF66662666012017E0B3F1405F12
:1008500021D0B3F1605F1ED000200FE000F01F0038
:100860000126864032464FF000612046154B9847DE
:1008700015F0010F14BF66662666012002B070BD38
:1008800000F01F0101262A4606FA01F120460E4B10
:1008900098473046F2E705F0605200F01F0101264C
:1008A00005EA06030093C5F38003B2F1605F14BF4D
:1008B0000022012206FA01F12046044CA0473046EE
:1008C000DCE700BF610708009F070800D1070800A8
:1008D00070B582B005460E46144602F0F043B3F1FF
:1008E000205F27D011D8B3F1006F16D0B3F1805F2D
:1008F00011D10A464FF08051194B984714F0010F5F
:1009000014BF6E662E66012012E0B3F1405F15D071
:10091000B3F1605F12D000200AE00A464FF0006198
:100920000F4B984714F0010F14BF6E662E6601201E
:1009300002B070BD0B4B98470120F9E704F06052FC
:1009400004F001030093C4F38003B2F1605F14BFAD
:100950000022012231462846034CA0470120E7E748
:10096000610708009F070800D10708002DE9F04142
:10097000044688460E4B9847054620460D4B98473F
:10098000054013D00C4C04F1600603E0B4420DD0D6
:1009900010345DB120684045F8D161682942F5D036
:1009A000E3689847636825EA0305EFE7BDE8F0814F
:1009B000F7070800FB0708000806072008B50B2109
:1009C0000148024B984708BD000E0E406D09080013
:1009D00008B50C210148024B984708BD00100E4095
:1009E0006D09080008B50D210148024B984708BD64
:1009F00000120E406D09080008B50E210148024B97
:100A0000984708BD00140E406D090800174A136B83
:100A100023F0700318431063936E13F0080F0AD18C
:100A20004FF4006311498A6E12F0080F03D1013BA5
:100A3000F9D1012070470D4A136B23F0030343F0F3
:100A400002031363936E13F0080F0AD14FF400638F
:100A500006498A6E12F0080F05D1013BF9D1012039
:100A60007047002070470020704700BF00060E400E
:100A7000C8B9114A136A090289B223F45C1323F03E
:100A8000030343F45C1343F001030B431362936EBF
:100A900013F0010FFBD0084A136A43F09B7343F431
:100AA00080331362704704490B6A044A1A40044BAE
:100AB00013430B62704700BF00060E40FCFFC8FEE8
:100AC00002003701024B986E00F48030704700BF7F
:100AD00000060E404FF00052014B9A62704700BF73
:100AE00000060E40024B986E00F00200704700BFF7
:100AF00000060E402C281ED81F280CD8114B9A69CE
:100B000001238340934318D0012303FA00F00D4BD7
:100B100018610020704720380A4BD3F808210123C0
:100B2000834093430BD0012303FA00F0054BC3F835
:100B3000000100207047012070470020704700200E
:100B4000704700BF00060E40FEE7000008B51C4BD2
:100B50001C4A9A4210D01C4B194A9A420CD2013BB3
:100B60009B1A23F0030304331344164951F8040B72
:100B700042F8040B9A42F9D1144B154A9A420AD210
:100B8000013B9B1A23F0030304331344002142F872
:100B9000041B9342FBD10F4B23F0604222F07F02F3
:100BA0000D498A6003F16043B3F5801F03D28B685F
:100BB00043F000538B60094B9847094B9847FEE779
:100BC00000000720E40E0800640507209C060720AB
:100BD000640507200000080000ED00E02D0D08006E
:100BE000FD0C08003D4B1B6B03F00303032B0ED8D9
:100BF000DFE803F0021C3838394B5B6913F0800FD3
:100C000014BF4FF400424FF4FA42364B1A60334B94
:100C10001B6B03F07003702B57D0304B1A6B3149AC
:100C2000C2F302120B68D3400B6070472B4B1B6A58
:100C300013F0807F03D02C4A2A4B1A60E7E72B4A37
:100C4000284B1A60254B1B6A03F07003102B05D04C
:100C5000202BDCD1244A234B1A60D8E7244A214BAD
:100C60001A60D4E71D4B1B6A13F0807F0CD01E4A1C
:100C70001C4B1A60194B1B6B03F00303022B16D09D
:100C80001C4A184B1A60C2E7184A164B1A60134BDD
:100C90001B6A03F07003102B05D0202BEAD1124AF7
:100CA000104B1A60E6E7124A0E4B1A60E2E70B4A55
:100CB000916A926A0B48C1F30A41036801FB03334E
:100CC000D2B2B3FBF2F30360A1E7064A13680A4904
:100CD000A1FB03135B081360704700BF00060E40C2
:100CE000101A0E4030010720001BB70000093D001C
:100CF00000127A00001C4E0EABAAAAAA08B5064B39
:100D00009847064B9847064B9847064B9847064B23
:100D10009847002008BD00BFF10608008D060800B6
:100D2000890508005D0408004104080070B50F4EF5
:100D30000F4D761BB61018BF002405D0013455F8AE
:100D4000043B9847A642F9D10A4E0B4D00F0B8F883
:100D5000761BB61018BF002406D0013455F8043BAA
:100D60009847A642F9D170BD70BD00BFCC0E0800F7
:100D7000CC0E0800D40E0800CC0E0800024B13B1B4
:100D8000024800F005B87047000000009D0D080003
:100D9000002301461A46184600F01EB838B50A4C22
:100DA0000A4D641BA4100AD004F18043013B05EBFB
:100DB0008305013C55F804399847002CF9D1BDE86A
:100DC000384000F087B800BFE40E0800E00E0800CD
:100DD000704700BF704700BF2DE9F8432C4D064611
:100DE000286898460F469146FFF7F2FF294B1C688A
:100DF000D4F84831002B3ED05A681F2A1CDC02F17F
:100E0000010E76B1012103EB8204C4F88890D3F877
:100E1000880191400843022EC3F88801C4F8088174
:100E200023D00232C3F804E0286843F82270FFF7A9
:100E3000D1FF0020BDE8F883174B0BB34FF4C87007
:100E4000AFF300800346D8B10020D4F848114FF02A
:100E5000010E586019600246C4F84831C3F8880191
:100E6000C3F88C01002EDCD0CCE7D3F88C01014311
:100E7000C3F88C11D5E704F5A673C4F84831BBE775
:100E80002868FFF7A7FF4FF0FF30BDE8F88300BFE9
:100E900060050720BC0E0800000000007465737434
:100EA0006A616B65737466616E0000000008040C73
:100EB000020A060E0109050D030B070F3801072072
:100EC000F8B500BFF8BC08BC9E4670477D0D080011
:100ED00019010800F8B500BFF8BC08BC9E46704771
:040EE000F500080011
:100EE4004FF48063204A136002F5007213601F4BB5
:100EF4001B6A13F0807F07D11D4A1C4B1A621A46E5
:100F0400936E13F0010FFBD01A4A184B1A621A465B
:100F1400936E13F4803FFBD0144A136B23F0030346
:100F240043F001031363936E13F0080FFBD0124ACE
:100F34000E4B9A621A46936E13F0020FFBD01122E5
:100F44000A4B1A631A46936E13F0080FFBD0122251
:100F5400064B1A631A46936E13F0080FFBD0074A28
:100F6400074B1A60704700BF000A0E4000060E408F
:100F74000908370009083701013F0D2000BD0105AC
:100F8400300107201B4B984215D91B4B984219D9A5
:100F94001A4B98421ED91A4B984223D9194B98429E
:100FA40094BF4FF480634FF4A063174A136002F5B3
:100FB4000072136070470023134A136002F5007235
:100FC400136070474FF480730F4A136002F5007288
:100FD400136070474FF400730B4A136002F50072FC
:100FE400136070474FF44073074A136002F50072B0
:100FF40013607047BFEA21017FF0FA02FF8FD0032C
:10100400FFB3C4047F4A5D05000A0E40FFFFFFFFE3
:1010140000093D0000000000000000002404072037
:101024008C040720F40407200000000000000000E6
:1010340000000000000000000000000000000000AC
:10104400000000000000000000000000000000009C
:10105400000000000000000000000000000000008C
:10106400000000000000000000000000000000007C
:10107400000000000000000000000000000000006C
:10108400000000000000000000000000000000005C
:10109400000000000000000000000000000000004C
:1010A400000000000000000000000000000000003C
:1010B400000000000000000000000000000000002C
:1010C40001000000000000000E33CDAB34126DE6C9
:1010D400ECDE05000B000000000000000000000032
:1010E40000000000000000000000000000000000FC
:1010F40000000000000000000000000000000000EC
:1011040000000000000000000000000000000000DB
:1011140000000000000000000000000000000000CB
:0414440078060720FF
:0400000380000B4D21
:00000001FF
