S015000050726F6A656374536869656C642E73726563DF
S214080000C8CD07203D2508003925080039250800F1
S21408001039250800392508003925080000000000A1
S214080020000000000000000000000000DD020800DC
S21408003039250800000000005D0308009903080041
S214080040392508003925080039250800392508000B
S21408005039250800392508003925080039250800FB
S214080060392508003925080000000000AD230800DF
S214080070C1230800D5230800E92308000000000073
S21408008000000000891D08003925080039250800E9
S21408009039250800392508003925080039250800BB
S2140800A03925080000000000392508003925080011
S2140800B0392508003925080039250800392508009B
S2140800C0392508003925080039250800392508008B
S2140800D0392508003925080039250800392508007B
S2140800E0392508003925080039250800392508006B
S2140800F03925080010B5054C237833B9044B13B1DD
S2140801000448AFF300800123237010BDF00A0720CF
S21408011000000000EC7308000C4B43B10C4810B507
S2140801200C49AFF300800C48036823B910BD0A4891
S214080130036833B97047094B002BF7D0BDE8104069
S2140801401847064B002BF5D0184700BF00000000E4
S214080150EC730800F40A0720EC730800000000009F
S21408016038B52520134B9847134C0823134A1449CF
S2140801702046144DA84701234FF44012002120467C
S214080180114DA84700212046104B984707212046C6
S2140801900F4B98474FF0807120460E4B9847002229
S2140801A0114620460C4B984720460C4B9847002093
S2140801B038BD00BFE524080000000C4080DE800241
S2140801C0007A030AA11C0800F31C0800D51C0800C6
S2140801D0151D0800231D0800E51C08000F1D080053
S2140801E038B5054C2046054B984705462046044B2F
S2140801F09847284638BD00BF00000C401F1D080061
S2140802000F1D0800014B0360704700BF01474E52A0
S214080210006D704700F1080343604FF0FF328260BC
S214080220C3600361002303607047002303617047BF
S21408023043685A684A6042688A605A68916059609A
S21408024041600861036801330360704710B40C68A6
S214080250B4F1FF3F15D000F10803C2681268944253
S21408026004D35B685A6812689442FAD25A684A609D
S21408027091608B605960086103680133036010BCA5
S21408028070470369F2E7436882689A608368426841
S2140802905A6003695A68904204BF82685A6000220E
S2140802A002611A68013A1A601868704703480068BD
S2140802B0006880F3088862B600DF00BF08ED00E03B
S2140802C04FF0807340F8043C40F8081C002340F8C0
S2140802D00C3C40F8202C403870470000064B196844
S2140802E00868B0E8F00F80F309884FF0000080F344
S2140802F011884EF00D0E704718AB07204FF080524D
S214080300014B1A60704700BF04ED00E0EFF3118060
S2140803104FF0A00181F311887047002008B5034B01
S2140803209847034A13680133136008BD0D03080095
S2140803302C01072080F311887047000008B5054A8D
S2140803401368013B136003B108BD0020024B9847B1
S214080350FAE700BF2C01072035030800EFF30980F1
S2140803600C4B1A6820E9F00F10602DE908404FF092
S214080370A00080F3118800F0D5FE4FF0000080F34F
S2140803801188BDE8084019680868B0E8F00F80F3DF
S2140803900988704718AB072008B54FF08052054B00
S2140803A01A60054B9847054B98470020044B98471A
S2140803B008BD00BF04ED00E00D030800290E080084
S2140803C03503080042F2CF02024B1A600722043BAC
S2140803D01A60704714E000E010B5094B1A6842F43A
S2140803E070021A601A6842F070421A60054B984705
S2140803F00024054B1C60054B9847204610BD00BFDF
S21408040020ED00E0C50308002C010720AD02080017
S21408041010B4134A00E01A4613688342FBD35168A7
S2140804205418A04209D041684418A3420AD0036071
S214080430904218BF106010BC704740680144516075
S2140804401046F0E7074C2468A34206D05B681944B8
S214080450416013681B680360EAE70360E8E700BFCB
S21408046010AB07200C0B072038B504462A4B9847D4
S2140804702A4B1B688BB1002C47D004F1100212F0EF
S214080480070F1CBF22F007020832511E49F6FE73FA
S21408049099423CD822490C6816E0214A214B136041
S2140804A00021516049F6F07298181C4D286049F6EC
S2140804B0F475595199505A6018601B4A1368103BD6
S2140804C01360D8E721461C4663689A4202D9236817
S2140804D0002BF7D1114B1B689C421AD00D681035BB
S2140804E023680B6063689B1A202B08D80E4A13688B
S2140804F061685B1A13600D4B9847284638BDA018EC
S214080500436062600A4B9847F0E70025F3E700254A
S214080510F1E70025EFE700BFF90D08000C0B0720F0
S21408052010AB0720100B072030010720510F0800DA
S2140805301104080080B110B50446084B9847084ACD
S21408054054F80C3C11680B441360A4F11000054BDA
S2140805509847054B984710BD704700BFF90D08002F
S2140805603001072011040800510F080010B5044692
S214080570036C5BB903681BB1A36B0133A36310BD9F
S2140805804068124B984700236360F5E76AB91A4635
S21408059080680F4B9847A368226C1344A360626870
S2140805A09342E9D32368A360E6E71A46C068084B77
S2140805B09847226C5242E3681344E36021688B42F2
S2140805C0DAD263681A44E260D6E700BF511408001E
S2140805D07527080038B50346006858B11A6CDC68F9
S2140805E01444DC605D68AC4228BFD8600846D96809
S2140805F0014B984738BD00BF75270800F8B5044674
S2140806001F4B9847A36C002B14DD636A93B104F163
S21408061024061C4D1C4F07E0A36C013BA364A36C87
S214080620002B07DD636A2BB13046A8470028F3D0B5
S214080630B847F1E74FF0FF33A364144B9847104BC5
S2140806409847636C002B14DD236993B104F11006F8
S2140806500C4D0D4F07E0636C013B6364636C002B25
S21408066007DD23692BB13046A8470028F3D0B847E2
S214080670F1E74FF0FF336364044B9847F8BD00BFBB
S2140806801D03080069120800991308003D030800B6
S21408069038B508B30D460446174B98472268216CB0
S2140806A0E36B03FB01F3D01860600020A063A26030
S2140806B05B1A1344E3604FF0FF336364A36495B991
S2140806C023692BB104F110000C4B9847012807D07A
S2140806D00B4B9847012038BD0A4B984700BFFDE7EB
S2140806E0094B9847F4E704F11000084DA84704F1B1
S2140806F02400A847ECE700BF1D030800691208009D
S2140807003D0308000D030800FD0208001502080056
S214080710F8B5D8B10D461746064650200D4B9847F3
S214080720044698B105FB06F001300A4B984720604E
S21408073048B1E663256401212046074B984784F8AC
S2140807404D702046F8BD2046044B9847044B984702
S21408075000BFFDE769040800910608003505080093
S2140807600D0308002DE9F04F85B0019248B1884680
S2140807709946044649B10027384EDFF80CA1384D93
S2140807802EE0384B984700BFFDE7036C1BB1354B8E
S214080790984700BFFDE70027EEE74A464146204651
S2140807A0314B9847636A2BB92D4B9847012005B003
S2140807B0BDE8F08F04F124002C4B98470128F3D1AC
S2140807C02B4B9847F0E7264B98470020EFE702A800
S2140807D0D0470FE02046274B9847274B98470127D6
S2140807E0B047A26BE36B9A42D7D3019B002BEAD0A3
S2140807F0002FECD0A847214B9847B047636CB3F15D
S214080800FF3F04BF00236364A36CB3F1FF3F04BF3C
S2140808100023A364A84701A902A8194B9847A8B9BA
S214080820B047D4F838B0E76BA847BB45D2D1019992
S21408083004F11000134B984720460E4B98470E4B72
S21408084098470028CBD10A4B9847C8E72046094B5B
S2140808509847094B98470020A9E700BF1D030800E2
S2140808603D0308000D0308006D050800691208001E
S214080870FD020800FD050800510F0800F90D0800E4
S21408088015130800C5110800ED12080070B50646D5
S2140808905020124B9847E8B104460025456005608D
S2140808A08560C56085630123C36305644FF0FF3325
S2140808B04364836480F84D601030094EB04704F1F5
S2140808C02400B0472B462A4629462046054DA84709
S2140808D0204670BD044B984700BFFDE76904080032
S2140808E015020800650708000D0308002DE9F04109
S2140808F090B10E4615469846044689B11B4B984754
S2140809000746A26BE36B9A4211D300243846184B6D
S21408091098472046BDE8F081144B984700BFFDE78E
S214080920036C002BEAD0114B984700BFFDE7424600
S214080930314620460F4B9847A36CB3F1FF3F0AD1C8
S214080940636A6BB104F124000B4B984750B15DB154
S21408095001242C60DAE7A36C0133A3640124D5E7ED
S2140809600124D3E70124D1E70124CFE70D030800CB
S214080970350308006D050800691208002DE9F047E0
S21408098084B0019248B188469946044649B1002782
S214080990464EDFF84CA1464D4BE0464B984700BF05
S2140809A0FDE7036C1BB1434B984700BFFDE70027E4
S2140809B0EEE7E568414620463F4B9847B9F1000FF9
S2140809C017D1A36B013BA363236813B93B4B984726
S2140809D0606023693BB104F11000394B9847012841
S2140809E001D1384B9847324B9847012004B0BDE8F0
S2140809F0F087E560636A002BF5D004F12400304BDD
S214080A0098470028EFD02F4B9847ECE7284B984795
S214080A100020EBE702A8D04714E0B04760682A4BEE
S214080A209847A8472CE02046284B9847284B9847D5
S214080A300127B047A36B002BBBD1019B002BE5D049
S214080A40002FE7D0A847234B9847B047636CB3F10D
S214080A50FF3F04BF00236364A36CB3F1FF3F04BFEA
S214080A600023A364A84701A902A81B4B9847B0B95E
S214080A70B047A76BA847002FD5D12368002BCCD04A
S214080A80019904F12400154B984720460F4B9847C8
S214080A900F4B98470028CBD10A4B9847C8E7204603
S214080AA00A4B98470A4B984700209FE71D03080003
S214080AB03D0308000D030800D5050800A513080027
S214080AC069120800FD020800D1130800FD05080099
S214080AD0510F0800F90D080015130800C511080085
S214080AE0ED12080038B504460D460E4B9847636C61
S214080AF0B3F1FF3F04BF00236364A36CB3F1FF3F69
S214080B0004BF0023A364084B9847A36B1BB1204679
S214080B10064B984738BD294604F12400044B9847ED
S214080B20F5E700BF1D0308003D030800FD050800A3
S214080B302512080010B50F4B1B6858600E4B1B6833
S214080B4098420ED304460D4B18680A4B19680431B0
S214080B500B4B98470B4B1B689C423CBF094B1C60D1
S214080B6010BD094B1868034B19680431044B9847A5
S214080B7010BD00BF18AB072014AC07201CAB07201D
S214080B804D0208003401072020AB07202DE9F84F56
S214080B900A9FDDF82C900C9E48B1884615469B4661
S214080BA08246042F07D9604B984700BFFDE75E4B87
S214080BB0984700BFFDE74C205C4B98470446002842
S214080BC054D0002E48D00663AA00A5213046584BBC
S214080BD0984705F18045013D236B03EB850323F019
S214080BE007050A22414604F13400524B9847002371
S214080BF084F83D30E762A76404F1040840464E4E88
S214080C00B04704F11800B0472461C7F10503A36193
S214080C1064625A4651462846484B9847206010F06A
S214080C20070F27D1B9F1000F01D0C9F80040444B8F
S214080C309847444A136801331360434B1B68EBB16B
S214080C40424B1B68002B40D13F4B1B68DB6A9F4218
S214080C5024BF3D4B1C6038E0A800344B9847064636
S214080C6020630028B0D12046394B98474FF0FF3014
S214080C70BDE8F88F2C4B984700BFFDE7324B1C6049
S214080C801368012B21D1334E3046334DA84706F161
S214080C901400A84706F12800A84706F13C00A84714
S214080CA006F15000A847DFF8E4904846A8472B4EC0
S214080CB03046A8472A48A8472A48A8472A48A8479F
S214080CC02A4BC3F800902A4B1E60E06A294B1B6823
S214080CD0984284BF274B1860274A13682364013359
S214080CE01360264B1B68984284BF244B186000EBA1
S214080CF080004146174B03EB8000214B9847214B59
S214080D009847124B1B684BB10F4B1B68DB6A9F4218
S214080D1007D91D4B98470120BDE8F88F0120BDE88C
S214080D20F88F0120BDE8F88F0D0308006904080055
S214080D3061280800A52908002B020800C10208003F
S214080D401D03080088AB072018AB0720E8AB072070
S214080D503505080024AB072015020800B8AB0720A5
S214080D60D4AB072000AC0720ECAB07201CAB072051
S214080D7020AB0720A0AB072094AB07209CAB07202E
S214080D80310208003D030800FD020800A4AB072056
S214080D9010B584B000230393029301930093822234
S214080DA00D490E480E4CA047012802D080B104B069
S214080DB010BD0C4B98470128F8D10B4B98470122D9
S214080DC00A4B1A6000220A4B1A600A4B9847EEE74D
S214080DD0054B984700BFFDE7347008009D100800D3
S214080DE08D0B0800491508000D030800E8AB07201E
S214080DF014AC0720D9030800024A136801331360AD
S214080E00704700BF90AB072010B5044B9847044BBB
S214080E101C68044B9847204610BD00BF1D030800F9
S214080E2014AC07203D0308003D4B1B68002B6FD110
S214080E302DE9F0413B4B1A6801321A601B68ABB9C2
S214080E40394B1B681B68002B28D1374B1968374A63
S214080E5010681860116036490A6801320A601B6813
S214080E601B68FBB94FF0FF32324B1A602D4B1A68DD
S214080E70304B1B689A4250D32B4B1B681B68CBB170
S214080E80294B1B68DB68DC686368264A126893424D
S214080E9016D8294E294FDFF8B4802FE0284B9847FC
S214080EA000BFFDE7204B1B68DB68DB685A68214BF0
S214080EB01A60DBE74FF0FF321E4B1A60BDE8F08180
S214080EC01C4A1360BDE8F081E06A3B68984288BF18
S214080ED0386000EB8000294608EB8000194B9847DD
S214080EE0114B1B681B68002BE4D00F4B1B68DB6894
S214080EF0DC6863680B4A12689342E1D8251D2846C9
S214080F00B047A36A002BDFD004F11800B047DBE730
S214080F100D4A1368013313607047BDE8F08100BFBF
S214080F2090AB072014AC07201CAB072020AB07208B
S214080F30D0AB072034010720870208009CAB0720A7
S214080F400D030800310208008CAB072024AB0720ED
S214080F502DE9F8432F4B1B681BB92F4B984700BF4A
S214080F60FDE72E4B98472B4B1A68013A1A601B6808
S214080F70002B4DD12A4B1B682BB10024DFF8CC8000
S214080F80284F294E23E00024284B98472046BDE8E2
S214080F90F883D8F80C30DD6805F11800B84705F175
S214080FA004094846B847E86A3368984288BF3060FC
S214080FB000EB800049461E4B03EB80001D4B98470C
S214080FC01D4B1B68EA6ADB6A9A4228BF0124D8F8D8
S214080FD00030002BDDD1194B1B6893B1174B1B68EB
S214080FE043B1174D154CA8472368013B2360236877
S214080FF0002BF8D10022134B1A60134B9847012494
S214081000C2E7012CF6D00F4B1B68012BBCD1F1E7C9
S2140810100024B9E790AB07200D0308001D0308005D
S21408102088AB0720870208009CAB07203D03080012
S21408103024AB07203102080018AB07208CAB07202A
S214081040290E0800CCAB0720FD020800D4AB072009
S21408105010B510B90A4B984710BD0446094B984777
S214081060094B1B681C44094B18680430084B984702
S2140810702046084B9847084B98470028ECD1E9E7E4
S214081080FD020800F90D080014AC072018AB07206D
S21408109087020800350B0800510F080080B5164D6A
S2140810A0DFF87880154E24E0154B1B68012B1ED8F8
S2140810B02B68002BF8D0C0473468B847002CF7D008
S2140810C0104B9847F368DC68201D0F4B98470F4A6B
S2140810D01368013B13602B68013B2B600C4B984749
S2140810E0206BDFF83C90C8472046C847E0E7094B26
S2140810F09847094FDCE700BF98AB072000AC0720ED
S21408110024AB07201D0308008702080088AB0720C9
S2140811103D030800FD020800510F0800F90D0800FD
S21408112035050800214B1B68EBB910B5204B1B682A
S21408113003EB83039B001F4AD358C3B91C4B1B6899
S2140811406BB11B4A1B491368013B1360136803EB1A
S214081150830351F8233053B91368002BF3D1164B89
S214081160984700BFFDE70122144B1A607047104BE2
S2140811701B68104A9900C81802EB80004468646827
S2140811804460194402460832944209D003EB8303AC
S214081190084A02EB83035B68DA68094B1A6010BDDD
S2140811A06068044A02EB81025060EFE790AB0720C4
S2140811B09CAB072024AB07200D030800CCAB072008
S2140811C018AB072038B590B10C460E4D2968183173
S2140811D00D4B9847286804300C4B9847B4F1FF3FEE
S2140811E009D00B4B186820440A4B984738BD0A4B61
S2140811F0984700BFFDE7296804310848084B984718
S21408120038BD00BF18AB07204D020800870208004B
S21408121014AC0720350B08000D030800ECAB0720BC
S2140812203102080038B578B10D46094C21681831E6
S214081230084B984720680430074B9847074B1868B0
S2140812402844074B984738BD064B984700BFFDE72C
S21408125018AB0720310208008702080014AC0720E4
S214081260350B08000D03080038B5C368DC681CB3E6
S21408127004F118052846154B9847154B1B68FBB90B
S214081280251D2846114B9847E06A124B1B68984262
S21408129084BF104B186000EB800029460E4B03EB0A
S2140812A080000E4B98470E4B1B68E06ADB6A984234
S2140812B034BF0020012038BD0A4B984700BFFDE721
S2140812C029460948054B9847EDE700BF87020800FE
S2140812D090AB07209CAB072024AB07203102080000
S2140812E018AB07200D030800D4AB072008B530B1AB
S2140812F0054A12680260054A1268426008BD044B37
S214081300984700BFFDE700BFD0AB072014AC072006
S2140813100D03080038B5E8B10D460446F1B1184B80
S21408132098472B68B3F1FF3F26D0164A1268216803
S214081330914204D0144A1268616891421ED9124A32
S21408134012686168521A93420CD801240F4B9847CA
S214081350204638BD0E4B984700BFFDE70C4B984714
S21408136000BFFDE7084A1268521A9B1A2B602046EF
S214081370084B98470024E9E70024E7E70124E5E757
S2140813801D030800D0AB072014AC07203D03080057
S2140813900D030800ED1208000122014B1A60704781
S2140813A0CCAB0720014B1868704700BF18AB072066
S2140813B0054B1B6833B1054B1B68002B0CBF01207F
S2140813C00220704700207047E8AB072090AB072044
S2140813D0002831D038B50546C36A18490968C96A6D
S2140813E08B4211D215490968C96AC1F105018161A4
S2140813F003EB8303124901EB83034169994204D046
S2140814000E4B1B68DB6AC36238BD041D20460D4BB5
S21408141098470A4B1B68D86AE8620B4B1B689842C9
S21408142084BF094B186000EB80002146044B03EB91
S2140814308000064B984738BD704700BF18AB07209A
S21408144024AB0720870208009CAB0720310208005F
S214081450E8B138B50446C16A826C914216D0051DBB
S21408146028460B4B9847A06CE062C0F10503A361C1
S214081470084B1B68984284BF064B186000EB800038
S2140814802946054B03EB8000044B984738BD704748
S214081490870208009CAB072024AB0720310208000F
S2140814A008B54160006191420CD8D21A83699A4205
S2140814B001D3012008BD011D094B1868094B984740
S2140814C0002008BD9A4201D2994206D2011D064B59
S2140814D01868044B9847002008BD012008BD00BFC7
S2140814E01CAC07204D02080018AC072070B50D4B41
S2140814F098470D4B1B6813B10C4B984770BD0C4DA5
S21408150028460C4EB0470C4C2046B0470B4B1D6087
S2140815100B4B1C6000220C2105200A4B9847024BF7
S2140815201860E9E71D0308004CAC07203D030800D7
S21408153020AC07201502080034AC072018AC07209A
S2140815401CAC07201107080010B584B00B4B984751
S2140815500B4B1B6873B10023039302930193042279
S21408156000924FF4827207490748084CA04708B112
S21408157004B010BD064B984700BFFDE7ED14080001
S2140815804CAC07203C700800991608008D0B080024
S2140815900D03080030B585B00F4C2568D5B11C463C
S2140815A00191029203903BB10023224601A92846E6
S2140815B00A4CA04705B030BD094B984701284FF0A4
S2140815C000030CBF089A1A4601A903480068054C90
S2140815D0A047EFE70020EDE74CAC0720ED08080031
S2140815E0B1130800650708002DE9F04782B0814668
S2140815F0214B98478046214B1B68984215D30023F9
S214081600C9F800301D4BC3F80080404602B0BDE85C
S214081610F087002100910B4652462046184CA047FA
S21408162028B9184B984700BFFDE7174E174F336881
S2140816301A68C2B1DA68D2F800A0DB68DC68251D33
S2140816402846B847636A20469847E369012BEED1D7
S214081650A36953449A45DCD26360246129463068FE
S2140816600B4B9847E3E70B4A106807490860136076
S2140816700123C9F80030C5E7090E080048AC072062
S214081680951508000D03080018AC07208702080007
S2140816904D0208001CAC07202DE9F04186B0DFF8A3
S2140816A068814D4B1B681A68002A00F08980DB6841
S2140816B01D684A4B984703A8494B98470646039B1C
S2140816C0002B40F08680A8420FD2A91B454B18680D
S2140816D0454B9847454B984708B9454B984702A845
S2140816E03F4B984707463F4E36E0404B98473A4BA5
S2140816F01B68DB68DC68201DC047E369012B14D132
S214081700A1692B463246294420463A4EB04701285E
S2140817100BD1002100910B462A462046364DA84795
S21408172018B9364B984700BFFDE7636A20469847C6
S214081730D5E70025C9E70499A16131B13B463A4689
S214081740394420462B4CA04706E02C4B984700BF50
S214081750FDE720462A4B98472A4D00231A4603A938
S2140817603068A84700289CD0059C1CB163690BB15B
S214081770201DC047039B022BDDD0032BE9D0002B8E
S214081780EBD10499A0690B463A4601442046194D08
S214081790A8470128E0D1636A20469847E369012BE9
S2140817A0DAD1A269002100910B460498024420462B
S2140817B0114CA0470028CFD1104B984700BFFDE733
S2140817C0064B984703A8064B98470646039B002BEC
S2140817D0AFD0064B984782E718AC0720F90D0800EB
S2140817E0E91508004CAC0720E50A0800510F080068
S2140817F0FD020800A1140800951508000D0308004E
S214081800350508007D09080087020800F8B54FF47A
S214081810FA700E4B98470E4B4FF480421A601A61C6
S214081820C3F8A0201F460B4D0B4EFC6B00231A4630
S21408183019462868B04714F4802FF6D100231A46B4
S21408184019462868054CA047EFE700BF5110080066
S21408185000120E409CAD07207D09080065070800A9
S214081860F8B54FF4FA700E4B98470E4B4FF40072CB
S2140818701A601A61C3F8A0201F460B4D0B4EFC6B6E
S21408188000231A4619462868B04714F4803FF6D154
S21408189000231A4619462868054CA047EFE700BFFC
S2140818A05110080000120E4098AD07207D09080068
S2140818B0650708002DE9F04784B000230A22194678
S2140818C071480068714CA04700230A2219467048E0
S2140818D00068A0476F48704B9847704BA3FB0023DF
S2140818E09B0803EB8303C31A6D4A02FB03F303F555
S2140818F0F41808F590686B4B4FF480521A601A611A
S214081900C3F8A02000241D465F4FDFF8DC9115E0E1
S2140819104FF480436B634FF480536B634FF400734C
S2140819206B63614B98476148614B98474CF250305F
S214081930604B9847604B984703281FD0012C27D048
S214081940002CE5D0022CF9D1574B98475B48584BEA
S21408195098474CF25030574B9847594B9847801B3E
S21408196044F62063984243D94F4B98475548504B06
S21408197098474B484F4B98470024DFE74A4B984711
S21408198051484B4B984740464A4B98470124D5E761
S214081990EB6B13F4803F0DD0EB6B13F4802F13D151
S2140819A0414B98474948424B98473D48414B9847D2
S2140819B00024C3E73C4B984745483D4B9847384872
S2140819C03C4B98470024B9E700231A46194638685E
S2140819D0404CA04700231A4619462D480068A047E1
S2140819E04FF480532B63364B984706460224A5E7E8
S2140819F000231A4619463868DFF890A0D047012811
S214081A0025D000231A46194621480068DFF87CA02E
S214081A10D047012892D12A4B984704464FF4805362
S214081A206B634FF400732B631F4B9847A21BA9FBED
S214081A300232C2F34F1228496846284B9847684630
S214081A401B4B984726481B4B9847002476E71C4BA9
S214081A50984704464FF480536B634FF480432B63D8
S214081A60114B9847A41B0D4AA2FB0432C2F3CF02BF
S214081A701C496846194B984768460D4B98471848BE
S214081A800C4B9847002459E79CAD07207D090800B1
S214081A9098AD072000C00B4011020800CDCCCCCC76
S214081AA040420F0000120E405D20080044700800F7
S214081AB0A11E0800651E0800E91D0800B47008008D
S214081AC0090E0800B87008006470080094700800D2
S214081AD07470080065070800E0700800FD28080014
S214081AE000093D00C47008001F85EB5170B584B02E
S214081AF00B20254CA0470C20A0470D20A0470E2001
S214081B00A047224B9847224B9847224B9847224B90
S214081B1098470020214B98472920A0472048214B6A
S214081B20984700210C20204B984701201F4CA047BF
S214081B301F4B18600120A0471E4B18600024039412
S214081B40029401940126009623464FF400721A491F
S214081B501A481B4DA84703940294019400962346FE
S214081B604FF4007217491848A84703940294019442
S214081B70009623464FF4007214491548A847154B9B
S214081B809847204604B070BDE52408007D2008006C
S214081B90E1200800291E0800791F080061010800D6
S214081BA000C00B4005020800ED1E08008D0808005E
S214081BB098AD07209CAD0720FC700800B5180800F3
S214081BC08D0B08000C7108006118080018710800D1
S214081BD00D180800910D0800002A51D02DE9F04F85
S214081BE083B005460C4692468A44264FDFF8A890EE
S214081BF0254E1DE021463846C8470028FAD121E080
S214081C009B46DFF8988001A95846C0470028FAD1B5
S214081C10019B237019E09B46DFF8808001A958468F
S214081C20C0470028FAD1019B23700134544523D0BD
S214081C3000230193BD42DDD0144B9D42E0D0144BE7
S214081C409D42E8D0134B9D420BD0B542EDD1DFF84C
S214081C504C8001A93046C0470028FAD1019B237062
S214081C60E3E79B46DFF8348001A95846C0470028BA
S214081C70FAD1019B2370D8E7002003B0BDE8F08FA7
S214081C800020704700080E4000400A4000800940C7
S214081C9000C0094000000A405D1D08006F1D0800CE
S214081CA030B4012404600024446040F20225C0F8E1
S214081CB02051C0F80441C0F8144145685200B1FBF1
S214081CC0F2F2013A120292B22B431A4342602046BD
S214081CD030BC7047436823F01003436043681943D9
S214081CE0416070474368D201D2B219430A43426042
S214081CF0704710B44468090601F0706121430A432E
S214081D00190701F040511143416010BC7047022387
S214081D1003607047012303FA01F101617047006A06
S214081D2070474162704710B4890143180224445032
S214081D304FF0FF319962196A5A6010BC7047C0F8B4
S214081D40C410704789010523435070478901022350
S214081D504350704700EB811108697047436913F0D8
S214081D60010F1DBF83690B7000200120704743696F
S214081D7013F0010F05D08369C3F308030B60002036
S214081D80704701207047000000B583B001220DF1AE
S214081D9007011048104B984772B6BFF35F8F0022B2
S214081DA00E4B1A700E4B1B789DF807100D4AD1542F
S214081DB09B2B0BD001330A4A13700122074B1A706B
S214081DC0BFF35F8F62B603B05DF804FB0022044BD6
S214081DD01A70F2E700800940D91B0800380107206E
S214081DE0ECAC072050AC072008B500200D4B9847F0
S214081DF0312813D9B0F57A7F12D3B0F5FA6F01D22D
S214081E00022008BDB0F52F6F01D2042008BD40F6A9
S214081E10AB53984294BF0320052008BD002008BD98
S214081E20012008BDE101080010B51B20084B9847A3
S214081E30084C002211462046074B984700212046AA
S214081E40064B984700212046054B9847002010BDB2
S214081E50E524080000000840271D08003F1D08006C
S214081E604D1D0800F8B5054600210948094B984756
S214081E702A2404FB05F4064F0026074D314638464B
S214081E80A847A042FAD300210148044B9847F8BD5A
S214081E9000000840451D0800551D08004D1D080097
S214081EA00378F3B12DE9F047814680464FF0010AE2
S214081EB00D4D0027514698F80000A84718F8013F2E
S214081EC063B1A8EB0903DBB2102BF3D11824142650
S214081ED039463046A847013CFAD1EBE70020BDE872
S214081EE0F0870020704700BFED1E0800F0B585B0EB
S214081EF005460C461D4B0FCB04AE06E90F0006EB55
S214081F00151313F8103CDB055CBB4FF48001184A28
S214081F10516303F0F062164C2263DB4303F0F06370
S214081F2063634FF4001727630120124EB0476763B8
S214081F306420B04705F00F0504AB1D4415F8103CA7
S214081F40DB0503F0F0622263DB4303F0F0636363B0
S214081F5027630120B04767636420B047002005B0B8
S214081F60F0BD4FF48001024A1163D2E724710800DD
S214081F7000120E40651E08002DE9F047344C4FF459
S214081F8080072761C4F8A0704FF400152561C4F8CF
S214081F90A0504FF0F0632361C4F8A030656347F2A1
S214081FA030502C4EB04767634FF0806AC4F830A0B4
S214081FB04FF00079C4F830904FF08078C4F8348039
S214081FC04FF40007676325630120B047656341F255
S214081FD00400B047C4F830A0C4F83090C4F8348081
S214081FE0676325630120B04765636420B047C4F87B
S214081FF030A0C4F83090C4F83480676325630120A5
S214082000B04765636420B047C4F834A0C4F830907D
S214082010C4F83480676325630120B047656364208D
S214082020B047002128200C4CA04700210820A047D4
S21408203000210120A04740F6B830B047002106200E
S214082040A04700210F20A0470020BDE8F08700BF6A
S21408205000120E40651E0800ED1E080008B5002197
S2140820600120044B984740F6B830034B98470020A9
S21408207008BD00BFED1E0800651E080010B50E4816
S2140820800E4B98473E2100200D4B98470D4CA04715
S2140820900028FCD00C4B98470C4A0D4B9A620D4C06
S2140820A0A0470028FCD010200B4B98470B4B9847AE
S2140820B00148024B984710BD00BD0105A500072042
S2140820C061240800B5240800C5240800013F0D2037
S2140820D000060E40D5240800FD230800D525080074
S2140820E010B54FF40042124B5A600B20114CA04713
S2140820F00C20A0470D20A0470E20A0474FF06051A7
S2140821003B200D4CA0474FF060515520A0474FF09C
S21408211060515620A04709496820A04708495C2016
S214082120A047084A4FF440710748084B984710BD27
S214082130501A0E40E5240800F1210800790000280E
S2140821400100002801000008000E0E40C122080009
S2140821504264B1F1805F16D00BD849B1B1F1006F77
S21408216005D1036F016F0B4023EA02030367426041
S2140821707047B1F1405FFBD0B1F1605FF8D0B1F1C4
S214082180205FF4D17047036F13430367EFE741649A
S21408219012F0010F14BF4166016612F00A0F14BF51
S2140821A00162416212F0020F07D112F0080F18BF41
S2140821B0C0F88410416101607047C0F88010F9E7E4
S2140821C010B4019C416444B9016643B1016542B943
S2140821D041630161016010BC70474166F5E74165DF
S2140821E0F5E70163F5E7C06C7047806C7047000040
S2140821F070B582B00D46430903F5001303F2077362
S2140822005C0201F0F043B3F1205F31D016D8B3F189
S214082210006F1BD0B3F1805F16D100F01F000126B7
S214082220864032464FF080512046224B984715F09C
S214082230010F14BF66662666012017E0B3F1405FFB
S21408224021D0B3F1605F1ED000200FE000F01F0021
S2140822500126864032464FF000612046154B9847C7
S21408226015F0010F14BF66662666012002B070BD21
S21408227000F01F0101262A4606FA01F120460E4BF9
S21408228098473046F2E705F0605200F01F01012635
S21408229005EA06030093C5F38003B2F1605F14BF36
S2140822A00022012206FA01F12046044CA0473046D7
S2140822B0DCE700BF512108008F210800C121080073
S2140822C070B582B005460E46144602F0F043B3F1E8
S2140822D0205F27D011D8B3F1006F16D0B3F1805F16
S2140822E011D10A464FF08051194B984714F0010F48
S2140822F014BF6E662E66012012E0B3F1405F15D05B
S214082300B3F1605F12D000200AE00A464FF0006181
S2140823100F4B984714F0010F14BF6E662E66012007
S21408232002B070BD0B4B98470120F9E704F06052E5
S21408233004F001030093C4F38003B2F1605F14BF96
S2140823400022012231462846034CA0470120E7E731
S214082350512108008F210800C12108002DE9F0410D
S214082360044688460E4B9847054620460D4B984728
S214082370054013D00C4C04F1600603E0B4420DD0BF
S21408238010345DB120684045F8D161682942F5D01F
S214082390E3689847636825EA0305EFE7BDE8F08138
S2140823A0E7210800EB210800F0AC072008B50B2150
S2140823B00148024B984708BD000E0E405D230800F2
S2140823C008B50C210148024B984708BD00100E407E
S2140823D05D23080008B50D210148024B984708BD43
S2140823E000120E405D23080008B50E210148024B76
S2140823F0984708BD00140E405D230800174A136B63
S21408240023F0700318431063936E13F0080F0AD175
S2140824104FF4006311498A6E12F0080F03D1013B8E
S214082420F9D1012070470D4A136B23F0030343F0DC
S21408243002031363936E13F0080F0AD14FF4006378
S21408244006498A6E12F0080F05D1013BF9D1012022
S2140824507047002070470020704700BF00060E40F7
S214082460C8B9114A136A090289B223F45C1323F027
S214082470030343F45C1343F001030B431362936EA8
S21408248013F0010FFBD0084A136A43F09B7343F41A
S21408249080331362704704490B6A044A1A40044B97
S2140824A013430B62704700BF00060E40FCFFC8FED1
S2140824B002003701024B986E00F48030704700BF68
S2140824C000060E404FF00052014B9A62704700BF5C
S2140824D000060E40024B986E00F00200704700BFE0
S2140824E000060E402C281ED81F280CD8114B9A69B7
S2140824F001238340934318D0012303FA00F00D4BC1
S21408250018610020704720380A4BD3F808210123A9
S214082510834093430BD0012303FA00F0054BC3F81E
S21408252000010020704701207047002070470020F7
S214082530704700BF00060E40FEE7000008B51C4BBB
S2140825401C4A9A4210D01C4B194A9A420CD2013B9C
S2140825509B1A23F0030304331344164951F8040B5B
S21408256042F8040B9A42F9D1144B154A9A420AD2F9
S214082570013B9B1A23F0030304331344002142F85B
S214082580041B9342FBD10F4B23F0604222F07F02DC
S2140825900D498A6003F16043B3F5801F03D28B6848
S2140825A043F000538B60094B9847094B9847FEE762
S2140825B000000720EC730800F00A0720C8AD0720C3
S2140825C0F00A07200000080000ED00E025270800B4
S2140825D0ED1A08003D4B1B6B03F00303032B0ED8C4
S2140825E0DFE803F0021C3838394B5B6913F0800FBC
S2140825F014BF4FF400424FF4FA42364B1A60334B7E
S2140826001B6B03F07003702B57D0304B1A6B314995
S214082610C2F302120B68D3400B6070472B4B1B6A41
S21408262013F0807F03D02C4A2A4B1A60E7E72B4A20
S214082630284B1A60254B1B6A03F07003102B05D035
S214082640202BDCD1244A234B1A60D8E7244A214B96
S2140826501A60D4E71D4B1B6A13F0807F0CD01E4A05
S2140826601C4B1A60194B1B6B03F00303022B16D086
S2140826701C4A184B1A60C2E7184A164B1A60134BC6
S2140826801B6A03F07003102B05D0202BEAD1124AE0
S214082690104B1A60E6E7124A0E4B1A60E2E70B4A3E
S2140826A0916A926A0B48C1F30A41036801FB033337
S2140826B0D2B2B3FBF2F30360A1E7064A13680A49ED
S2140826C0A1FB03135B081360704700BF00060E40AB
S2140826D0101A0E403C010720001BB70000093D00F9
S2140826E000127A00001C4E0EABAAAAAA0A4B1B6858
S2140826F053B1094B1B681A180849914208DB104663
S214082700054A106018467047054A034B1A60F0E7FA
S2140827104FF0FF30704700BF60AD0720FC7F0820F1
S214082720C8CD072070B50F4E0F4D761BB61018BFD4
S214082730002405D0013455F8043B9847A642F9D141
S2140827400A4E0B4D04F03CFE761BB61018BF00244C
S21408275006D0013455F8043B9847A642F9D170BD17
S21408276070BD00BFCC730800CC730800D473080093
S214082770CC730800844641EA000313F0030349D1EA
S214082780403A23D30B6803604B6843608B688360CA
S214082790CB68C3600B6903614B6943618B698361CE
S2140827A0CB69C3610B6A03624B6A43628B6A8362B6
S2140827B0CB6AC3620B6B03634B6B43638B6B83639E
S2140827C0CB6BC36340304031403ADBD230320BD358
S2140827D00B6803604B6843608B688360CB68C36094
S2140827E010301031103AF3D20C3205D351F8043BAE
S2140827F040F8043B043AF9D2043208D0D2071CBF8A
S21408280011F8013B00F8013B01D30B8803806046B2
S214082810704700BF082A13D38B07B1D010F0030304
S214082820AED0C3F10403D21ADB071CBF11F8013B74
S21408283000F8013BA4D331F8023B20F8023B9FE79F
S214082840043AD9D3013A11F8013B00F8013BF9D212
S2140828500B7803704B7843708B78837060467047AC
S21408286070B4860746D0541E002A41D0CAB2034622
S21408287002E014F1FF343BD303F8012B9D07F8D18F
S214082880032C2ED9CDB245EA05250F2C45EA054579
S21408289019D9264603F11002103E0F2E42F8105C96
S2140828A042F80C5C42F8085C42F8045C02F110023C
S2140828B0F2D8A4F1100222F00F0204F00F0410322E
S2140828C0032C13440DD91E462246043A032A46F81A
S2140828D0045BFAD8221F22F003020432134404F0E1
S2140828E003042CB1C9B21C4403F8011B9C42FBD15B
S2140828F070BC704714460346C2E700BF0EB40146D4
S214082900F0B56FF000454FF402774FF6FF769CB0AF
S21408291021AC54F8042B0B4B02910691186802A9B7
S21408292023460194ADF8147004950795ADF8166023
S21408293000F06AF80022029B1A701CB0BDE8F0404E
S21408294003B070474001072020F0030110F0030091
S214082950C0F1000051F8043B00F1040C4FEACC0C1F
S2140829606FF000021CBF22FA0CF213434FF0010C62
S2140829704CEA0C2C4CEA0C4CA3EB0C0222EA0302A1
S21408298012EACC1204BF51F8043B0430F4D0C2F16A
S214082990000102EA0102B2FA82F2C2F11F0200EB5B
S2140829A0D200704740EA010313F0030F70B40346E1
S2140829B024D0A2B10C78013A1C70013101333CB125
S2140829C06AB111F8014B013A03F8014B002CF7D114
S2140829D02AB100211A4403F8011B9A42FBD170BCA5
S2140829E070470E4651F8045BA5F1013424EA050445
S2140829F014F0803F05D1043A43F8045B032AF0D864
S214082A00D7E73146D6E700BF2DE9F04FC3B00C46EE
S214082A100B9192460F930C9002F08CFB03681846B5
S214082A201A93FFF791FFA3891990190603D523690E
S214082A30002B01F0358000230DF1C809C846159310
S214082A401393149318931B9309931693179327932A
S214082A502693CDF894909AF800305446EBB1252B7F
S214082A6002D11AE0252B03D014F8013F002BF9D128
S214082A70A4EB0A058DB1269B279A01332A44072B17
S214082A80C8F800A0C8F804502792269300F38A8056
S214082A9008F10808099B2B4409932378002B00F0BB
S214082AA0898000234FF0FF301A468DF87730194694
S214082AB00D939B46637804F1010A0A900AF1010A0D
S214082AC0A3F12000582800F2B783DFE810F04C0383
S214082AD0B503B5035403B503B503B503B503B5038A
S214082AE0B50359005903B50366001402B5032F024F
S214082AF0A503A503A503A503A503A503A503A50389
S214082B00A503B503B503B503B503B503B503B50308
S214082B10B503B503B5038B02D302B503D302B503D9
S214082B20B503B503B5031B03B503B5032003B50307
S214082B30B503B503B503B5033402B503B5034B02B5
S214082B40B503B503B503B503B503B503B503B503B8
S214082B50B503B50376029E03D302D302D3026303FA
S214082B609E03B503B5036803B5037503DD018C033F
S214082B705E03B503F201B5038700B503B503320358
S214082B800F9C236818460D932346002803F1040378
S214082B900F9304DA0D9B5B420D934BF0040B9AF8E7
S214082BA000308BE725AA0B990C9803F00FFB40B969
S214082BB0C8466FE7279B23B10C9825AA0B9903F004
S214082BC005FB0B9B9B8913F0400F099B18BF4FF022
S214082BD0FF330993099843B0BDE8F08F1BF0200F28
S214082BE0119340F0AF810F9A1BF0100F134640F078
S214082BF09A851BF0400F00F096850025012314885F
S214082C0004320F92002217468DF877200A994A1C3C
S214082C1000F010822BF08002079254EA050240F07A
S214082C200F82002940F03184002B40F039851BF0D4
S214082C3001030E9300F06286302342AE06F8413D4B
S214082C400A9B0E9A9342B8BF134608930023129322
S214082C5017B1089B01330893079B13F002031093E0
S214082C6002D0089B02330893079B13F0840540F0B4
S214082C7010830D9B089AA3EB020BBBF1000F40F3E1
S214082C800883BBF1100F40F3B287279C43462146C2
S214082C90A8461027269A0C9C0B9D06E0ABF1100B55
S214082CA0BBF1100F03F1080318DD0132AB481031F1
S214082CB0072A2791269283E88100EFDD25AA294670
S214082CC0204603F083FA00287FF47BAFABF1100BA5
S214082CD0BBF1100F4B462799269AE6DC45460C466C
S214082CE0984601329D4B5C44072A2794269288E82A
S214082CF0080800F3C3829DF8777008F1080887B1C2
S214082D000121269B0C440B440DF17702072B2794D0
S214082D102693C8F80410C8F8002000F3CD8308F1FD
S214082D200808109B7BB10221269B0C4401331EAA7F
S214082D30072B27942693C8F80410C8F8002000F339
S214082D40118408F10808802D00F004830A9B0E9A67
S214082D509F1A002F37DD102F40F37986804D4246A4
S214082D602146B0464FF0100B2E46269B0C9C0B9D1A
S214082D7004E0103F102F02F1080215DD0133103170
S214082D80072B2791269382E84008F2DD25AA2946D4
S214082D90204603F01BFA00287FF413AF103F102FCD
S214082DA04A462799269BE9DC35460C464646904611
S214082DB001333C44072B2794269388E8A00000F3A9
S214082DC0708308F10808079BDF0500F16482269BDC
S214082DD00E9901330C44072B2794C8F80060C8F8EE
S214082DE00410269300F3B38308F10808079B5B07D3
S214082DF03BD50D9B089A9D1A002D36DD102D40F305
S214082E0021871026269B0C9FDDF82CB004E0103D89
S214082E10102D08F1080816DD0133504A1034072B28
S214082E202794269388E84400F1DD25AA59463846B3
S214082E3003F0CCF900287FF4C4AE103D102DC84628
S214082E40279C269BE8DC0133444A2C44072B27940E
S214082E50269388E8240008DD25AA0B990C9803F029
S214082E60B5F900287FF4ADAE279C099B0D9A089902
S214082E708A42ACBF9B185B180993002C40F0FB8273
S214082E800023C8462693E6E511931BF0200340F07E
S214082E9045811BF0100240F066841BF0400300F0EA
S214082EA062840F9913460A4604320C8800250F924E
S214082EB0A8E600250F9A119316688DF87750141D0A
S214082EC0002E00F0CD860A9A531C00F01B86294671
S214082ED0304602F001FC002800F00D87831B0A9597
S214082EE00E930F94CDF81CB023EAE373089312955B
S214082EF09DF87770ACE69AF800300AF101042A2BA0
S214082F0000F0C287A3F130000928A24600F218870D
S214082F1000231C461AF8013B04EB840400EB440427
S214082F20A3F130000928F5D90A94C9E54BF0800BBF
S214082F309AF80030C2E54BF0100B1BF0200F1193E7
S214082F403FF451AE0F9C073424F0070303F1080240
S214082F50D3E900450F92012354E600BF7C710800B0
S214082F608C7108001193002A40F0AD87BE4B1BF009
S214082F70200F189340F0E7800F9A1BF0100F1346A7
S214082F8040F0D8831BF0400F00F0D48300250433AC
S214082F9014880F931BF0010F00F0E38054EA050332
S214082FA000F0DF8030239DF844208DF878308DF8C7
S214082FB079204BF0020B022324E60122119300230A
S214082FC011460F98089202681F468DF877300A93C4
S214082FD01293031DCDF81CB00E918DF8A0200F9308
S214082FE028AE39E61193002A40F084874BF0100B80
S214082FF01BF0200F40F075840F9A1BF0100F134635
S21408300040F09D831BF0400F00F09983B2F9004012
S2140830100433E5170F9322462B46002A73F1000364
S214083020C0F298830A999DF877704A1C4FF00103FE
S2140830307FF4F0AD54EA050200F02982CDF81CB002
S214083040012B00F00E83022B40F09C824E46189807
S214083050230943EA0573290904F00F020D461C46A6
S214083060835C06F8013D54EA0503F1D1A9EB060393
S2140830700E93E5E51193002A40F038870F9C1BF065
S214083080080F04F1070400F0CF8424F0070303F1C7
S21408309008020F921A685B6815921493149B159D84
S2140830A023F00044284621464FF0FF326F4B03F0CA
S2140830B0FBFD002840F03484284621464FF0FF32B6
S2140830C06A4B03F0D3FD002840F02A8415A80DC8E3
S2140830D0149903F0C1FD002840F0D4859DF8777058
S2140830E003231A4608930023614E19460A93614B38
S2140830F00E92119A2BF0800007901291472AD8BF9B
S2140831001E46A5E54BF0080B9AF80030D6E44BF0BF
S214083110100B11931BF020033FF4BBAE0F9C073433
S21408312024F0070303F10802D3E900450F920023B1
S21408313068E51193002A40F0C2864F4B1BF0200F1B
S21408314018933FF419AF0F9C1BF0010F04F1070406
S21408315024F0070303F108020F92D3E900457FF431
S2140831601DAF02234EE59AF8003000297FF4A6AC7E
S21408317001222021A2E44BF0010B9AF800309DE4CE
S2140831809AF8003001222B2198E44BF0200B9AF88D
S214083190003093E44BF0400B9AF800308EE49AF82F
S2140831A000306C2B03BF9AF801304BF0200B0AF165
S2140831B0010A4BF0100B81E4002A40F07C861BF0D5
S2140831C0200F40F052841BF0100F40F038841BF09C
S2140831D0400F00F034840F9A136804320F92BDF83B
S2140831E024201A8037E4782330220F988DF8793017
S2140831F01193031D0F93204B046818934BF0020B92
S2140832008DF8782000250223FCE41193002A3FF469
S214083210EFAE8DF87710EBE600200446A3F13000F9
S2140832201AF8013B04EB840400EB4404A3F13000D5
S2140832300928F5D90D9443E41193002A40F04A86EC
S214083240119A002A3FF4B6AC002301211F460891C4
S2140832508DF8A020CDF81CB08DF877300A9312931D
S2140832600E9128AEF8E400BF48710800FFFFEF7F14
S2140832703C710800387108005C71080025AA0B9993
S2140832800C9802F0A3FF00287FF49BACC8469DF874
S2140832907770279C33E5119B652B40F39A8015A819
S2140832A00DC8149903F0CEFC002800F09381012184
S2140832B0269BB54A0B440C44072B27942693C8F83C
S2140832C00410C8F8002000F3C68308F108081F9BFE
S2140832D0139A279C934203DB079BDD077FF586AD91
S2140832E0269B199901331A9A0C44072BC8F8002014
S2140832F0C8F804102794269300F3C48308F1080836
S214083300139B5E1E002E7FF771AD102E40F3758559
S21408331022461027269B9D4DDDF830B00B9C05E015
S21408332008F10808103E102E40F3258201331032AB
S214083330072B2792269388E8A000F1DD25AA2146C8
S214083340584602F043FF00287FF43BACC846279A4D
S214083350269BE7E70D9B089A9F1A002F7FF7F6AC87
S214083360102F40F3A884894D42462146B0464FF0B8
S214083370100B2E46269B0C9C0B9D04E0103F102F2E
S21408338002F1080215DD01331031072B2791269329
S21408339082E84008F2DD25AA2946204602F016FFF4
S2140833A000287FF40EAC103F102F4A462799269B1C
S2140833B0E9DC35460C464646904601333C44072B26
S2140833C02794269388E8A00000F39E8208F1080850
S2140833D0BCE4139B012B40F34F820123269F1C4419
S2140833E01F44072F2794C8F800602697C8F80430AB
S2140833F000F35F8208F10808199A01371A9B1444EB
S214083400072F27942697C8F80030C8F8042000F33A
S2140834105C8208F1080815A80DC8149903F012FC78
S214083420139B002840F04181013B013701361C44BC
S214083430072FC8F8006026972794C8F8043000F3CA
S214083440668108F108081B9A0137144421AB072F38
S21408345027942697C8F80420C8F800307FF7C4AC2D
S21408346025AA0B990C9802F0B1FE00287FF4A9ABA8
S214083470C846279CBAE425AA0B990C9802F0A6FE23
S21408348000283FF4FDACFFF79CBBDDF81CB0012B11
S21408349000F07E81022B71D1CDF81CB000240025E7
S2140834A0D4E525AA0B990C9802F090FE00287FF424
S2140834B088ABC846279C86E425AA0B990C9802F088
S2140834C085FE00287FF47DABC846279C29E40120AA
S2140834D0269B2D4A03440444072B27942693C8F8B2
S2140834E00400C8F8002040F3D88225AA0B990C9847
S2140834F002F06CFE00287FF464ABC8461F99279C30
S21408350029B9139B1BB9079BD8077FF56FAC199889
S214083510269B0246013322441A9C072B2792C8F89A
S2140835200040C8F80400269300F3318408F1080820
S2140835300029C0F20984139901338C18072B2794A5
S2140835402693C8F80060C8F804107FF74DAC25AA83
S2140835500B990C9802F03AFE00287FF432AB279CB1
S214083560C84643E425AA0B990C9802F02FFE0028BB
S2140835707FF427ABC846279CFFF7E5BB0024002549
S214083580CDF81CB0494604E0787108008C71080034
S2140835903146E20842EA4572E80804F007030546A1
S2140835A01446303354EA050201F8013C01F1FF36AF
S2140835B0EED1079AD2077FF559AD302B3FF456ADBA
S2140835C03023023906F8013CA9EB01030E930E4698
S2140835D0FFF736BB1F9900297FF779AF129B139A1E
S2140835E09342A8BF1346002B1F460BDD269B3C4480
S2140835F00133072B279488E8C000269300F3FB8244
S21408360008F10808129B002FA8BFDB1B002B1F46DB
S21408361040F3D780102B40F33484BA4D42462146F7
S214083620B0464FF0100B2E46269B0C9C0B9D04E0D4
S2140836300832103F102F40F3B58001331031072BA6
S2140836402791269382E84008F2DD25AA29462046D7
S21408365002F0BCFD00287FF4B4AA4A462799269BA8
S214083660E7E7002D08BF0A2CC0F090804E4620469B
S21408367029460A22002303F055FB303206F8012DAE
S2140836802046294600230A2203F04CFB04460D4632
S21408369054EA0503EBD1A9EB06030E93FFF7D0BA5D
S2140836A00A9B4E460E93FFF7CBBA5E1E002E7FF798
S2140836B0CAAE102E40F3E38322464FF0100B914D0E
S2140836C00C9C04E0103E102E08F1080815DD0137A2
S2140836D01032072F2792269788E82008F2DD25AAB9
S2140836E00B99204602F072FD00287FF46AAA103E65
S2140836F0102EC846279A269FE9DC1446013734441C
S214083700072F2794269788E860007FF79AAE25AAA1
S2140837100B990C9802F05AFD00287FF452AA279CB1
S214083720269FC8468FE604321C68002501230F92A0
S214083730FFF768BA1C6804330F9300252AE41C6850
S2140837400433E51722460F932B46002A73F100032D
S214083750BFF668AC2D27644265EB45058DF8777093
S2140837600123FFF753BA0F9900250A4604320C685E
S2140837700F92FFF747BA144601333444072B2794B1
S214083780269388E860007FF72FABE0E6DDF81CB0EC
S214083790012342AE3034CDF81CB006F8414D0E93E6
S2140837A0FFF74EBA35460C464646904601333C442B
S2140837B0072B2794269388E8A00000F3468208F192
S2140837C008081F9A139B9A4245DB079BD90742D4E1
S2140837D0139B12989A1A1D1A9542A8BF1546002DD3
S2140837E00EDD2699064401312C440729C8F80060E6
S2140837F02794C8F80450269100F3168208F10808A2
S214083800002DB4BF1646561B002E7FF7EFAA102EC3
S21408381040F3F38222461027269B3A4DDDF830B057
S2140838200B9C04E008F10808103E102EA3DD0133B7
S2140838301032072B2792269388E8A000F2DD25AAE7
S2140838402146584602F0C2FC00287FF4BAA9C846AA
S214083850279A269BE8E7269B199801331A99044469
S214083860072B2794C8F80010C8F80400269300F31E
S214083870CF8108F10808ABE7079BDA073FF5ADAD3F
S2140838800123269F1C441F44072F2794C8F800606E
S2140838902697C8F804307FF7D4AD25AA0B990C985C
S2140838A002F094FC00287FF48CA9C846279C269F23
S2140838B0C9E525AA0B990C9802F088FC00287FF425
S2140838C080A9C846279C269F96E525AA0B990C989A
S2140838D002F07CFC00287FF474A9C846279C269F23
S2140838E099E50F9C073424F0070404F10801D4E98D
S2140838F000230F9114461D46FFF78FBB4E46FFF771
S2140839009FB900BF8C71080025AA0B990C9802F085
S2140839105DFC00287FF455A9C846279CFFF716BA11
S214083920159C22462046149C2346214603F0BCF9E3
S214083930002840F073820A9B0133119B23F0200372
S2140839400E9300F09C81472B00F0D6804BF48073D2
S2140839500793149B1F1E159B0893B7BF3B4600236F
S21408396003F100472D231093119B662B00F09081DE
S214083970462B00F0A48002200E9B23A9452B0ABFE5
S2140839800A9B0A9D5D1C8DE82100049120A81FA9AA
S2140839903B460390089A02910C9800F059FB119B3D
S2140839A00646672B40F0BA811BF0010F00F0238211
S2140839B07419169A0898179B394603F043F9002895
S2140839C040F02481239BA34206D230215A1C23921E
S2140839D01970239B9C42F9D89B1B13930E9B472B6D
S2140839E000F0A280119B652B40F3A781119B662BE4
S2140839F01F9B129300F07181139B129A19469142ED
S214083A0000F35D811BF0010F40F0F08122EAE273BB
S214083A10089367230E921193109B002B7DD10A936F
S214083A209DF87770FFF714B924F0070423681593F8
S214083A306368149304F108030F93FFF72FBB0F9ADC
S214083A40136804320F92099A1A60FFF704B8269B87
S214083A50AF4DFFF7ADB925AA0B990C9802F0B6FB47
S214083A6000287FF4AEA8C84631E40F9A13460433FC
S214083A700F93099B1168DD171A462B46C1E90023E8
S214083A80FEF7E9BF25AA0B990C9802F09FFB0028C1
S214083A907FF497A8C846279C32E408F108082FE563
S214083AA040210C9801F060FB0B9A1060106100280A
S214083AB000F0148240230B9A5361FEF7BCBF032024
S214083AC00A9C23A98DE81100049120A81FA9039039
S214083AD0089A3B4602910C9800F0BAFA2546064624
S214083AE0119B7419462B7FF464AF3378302B00F0A3
S214083AF087811F9D2C445CE70A9B002B08BF012387
S214083B000A9323E730460A95FEF71EFF0F940E9099
S214083B10CDF81CB00346FFF7E7B92D2700238DF82C
S214083B2077700A93FFF795B81F9B1A4612930333CC
S214083B3004DB0A9B19469142BFF65EAF119B023B17
S214083B401193129B9DF84420013B002B8DF884208E
S214083B50B4BF2D222B221F93B8BF129B8DF8852049
S214083B60B8BFC3F10103092B40F31F810DF1930081
S214083B700146684C00E0114684FB0352DD17C5EB8E
S214083B80A20505EB8502A3EB42023032092D01F8A7
S214083B90012C2B4601F1FF32EDDC30330239DCB262
S214083BA0884202F8014C40F292810DF186011346D4
S214083BB001E013F8014B834201F8014BF9D10133B8
S214083BC09B1A0DF18602134421AA9B1A139A1B937B
S214083BD0012A13440E9340F348810E9B199A134406
S214083BE00E9323EAE37308930023129314E7279CA3
S214083BF0269AFFF776B825AA0B990C9802F0E6FAEB
S214083C0000287EF4DEAFC846279CFBE42346E3E69E
S214083C1025AA0B990C9802F0D9FA00287EF4D1AFA1
S214083C20C8461F9A279CD3E525AA0B990C9802F03C
S214083C30CDFA00287EF4C5AF1F9A139BC846279C6A
S214083C409A1ADDE5269BFFF7FEB825AA0B990C986D
S214083C5002F0BCFA00287EF4B4AFC846279CB0E54C
S214083C600A9B3746062B28BF06230A961296089301
S214083C700F94CDF81CB00E93274EFEF7E9BF062327
S214083C800A9363E62D231F468DF87730FFF728BA88
S214083C9003200A9C23A98DE81100049120A81FA9D7
S214083CA00390089A3B4602910C9800F0D1F92546F5
S214083CB00646041919E7269B154DFFF77EBB199A89
S214083CC0139B1344129A0E93002A40F3C78023EAE4
S214083CD0E3730893672311939EE6002B40F3E18075
S214083CE00A9A002A40F0B0801BF0010F40F0AC8022
S214083CF008930E9390E60A9B0F9408930E930A90E7
S214083D00CDF81CB012909DF87770FEF7A1BF00BFE3
S214083D108C7108006766666670710800119B472BF1
S214083D207FF446AE1BF0010F7FF4DAAE239B9B1B95
S214083D3013930E9B472B3FF4F7AE1F9B129300E797
S214083D4000200A90FEF7BCBE4F42103135DA102428
S214083D506A4DDDF830B004E008F10808103F102F6F
S214083D602CDD01331032072B27922693C8F8005013
S214083D70C8F80440F0DD25AA0B99584602F026FA42
S214083D8000287EF41EAFC846279A269BE6E725AA93
S214083D900B990C9802F01AFA00287EF412AFC8465F
S214083DA01F99279A269BFFF7C3BB302213448DF82A
S214083DB087308DF8862022AB06E7504D01333A440B
S214083DC0072B88E8A0002792269308F108087FF7B3
S214083DD0B2AB25AA0B990C9802F0F8F900287EF4E5
S214083DE0F0AEC846279A269BFFF7A5BB129B199AE2
S214083DF013440E936BE7239BEEE5269B3F4DBBE4EF
S214083E00169A0898179B394602F01CFF00287FF47C
S214083E1070AEC5F101051F952C44CAE5149B384EB3
S214083E20002BBEBF2D231F468DF877304FF00303B7
S214083E301A4608934FF00003A8BF9DF877701946F6
S214083E400A93304BFFF754B9129B199A13440A9AEF
S214083E501A4422EAE2730E920893DDE5129B0E9A44
S214083E60C3F101031A441346C3E71BF00103129378
S214083E707FF4B3AE0E9B23EAE3730893CCE51F4D9D
S214083E803CE4269B1D4D91E40F9D9AF80130286866
S214083E90A24640EAE0700A90284604300F90FEF7E3
S214083EA00DBE0A9B13B91BF0010F02D0199B0133F4
S214083EB0CDE701231CE78DF87710FFF780B98DF85A
S214083EC07710FFF73AB98DF87710FFF74FB80DF16E
S214083ED0860379E68DF87710FFF7B2B94FF0FF3210
S214083EE00C2309920C9A1360FEF774BE8DF87710AF
S214083EF0FFF7C4B88DF87710FFF778B88C7108000C
S214083F004471080040710800024B13B1024800F0E3
S214083F1005B8704700000000954E080000230146CB
S214083F201A46184602F0DCB92DE9F04F03690F6906
S214083F3083B09F4200F38880013F01F1140600F128
S214083F40140A56F827305AF827200133B2FBF3F83C
S214083F50BB00009306EB030953440193B8F1000F26
S214083F603BD00023B4461C46D6465CF8042BDEF845
S214083F7000501FFA82FB08FB0B33120C4FEA134B58
S214083F8008FB02BB9AB2A21AABB21FFA8BF41A4409
S214083F90C4EB154404EB224492B242EA0442E145DB
S214083FA04EF8042B4FEA24444FEA1B43DDD2009B0D
S214083FB05AF803308BB9019C231F9A450CD254F843
S214083FC0043C4BB9A4F1080302E01A68043B1AB98A
S214083FD09A4507F1FF37F8D30761044601F030FE2B
S214083FE000282DDB5546002308F1010856F8041B67
S214083FF028688AB29A1A0B0C81B20A44C3EB10439B
S21408400003EB224392B242EA0342B14545F8042B39
S2140840104FEA2343EAD25AF827200AEB87037AB9ED
S2140840201A1F92450BD253F8042C42B9083B02E0FB
S2140840301A68043B1AB99A4507F1FF37F8D327617F
S214084040404603B0BDE8F08F002003B0BDE8F08F0F
S2140840502DE9F04F056C9BB0044692469B46279E7A
S2140840604DB10123426C29469340AB606A6001F06B
S2140840700FFC00232364BBF1000F5D4635DB0023ED
S21408408033609D4BAB4315D000220023504659465B
S21408409002F0D8FD804600282DD00123269A13600A
S2140840A0289B002B00F0BD809448186001381BB090
S2140840B0BDE8F08F42F20F73269A1360BAF1000F2C
S2140840C00DD1C5F3130555B9289B8D48002BEED0A6
S2140840D000F10803289A13601BB0BDE8F08F289BF0
S2140840E08848002BE3D0C31CF4E701232BF00045D7
S2140840F03360AB46C5E718AA19AB0192009352463F
S2140841005B46204601F046FE2B0D814671D0504690
S214084110CBF3130242F07F51189FA3F2FF36CDF877
S214084120508041F440110022774B02F06FF96CA3DF
S214084130D3E9002302F01EFB6BA3D3E9002302F0A9
S21408414067F9CDE90201304602F0AEFA68A3D3E972
S214084150002302F00FFB02460B46DDE9020102F0DF
S21408416057F9CDE9040102F0B5FD002202900023BC
S214084170DDE9040102F070FD002840F06D81029D23
S214084180162D00F257816149524601EBC5015B4680
S214084190D1E9000102F07EFD002800F0BE816B1E0A
S2140841A0029300230E93BF1B7B1E089300F14E81DB
S2140841B000230A93029B002BC0F23F81089A0D93B6
S2140841C011461944002308910C93249B092B2AD8DE
S2140841D0052B40F358860025043B2493249B023B7A
S2140841E0032B00F23F86DFE813F0CE03C302D903A1
S2140841F05B04189F199E3E4406F23243202B40F378
S2140842008781C3F1400306F212409D402AFA00F067
S214084210284302F039FA0123013E1493A1F1F871FC
S21408422081E73B4843E7002120466164259101F079
S21408423009FB4FF0FF3307930F930123259A049049
S214084240206424920B93199B002BC0F2D380029A09
S2140842500E2A00F3CF802D4B03EBC203D3E90023CD
S214084260CDE90823259B002BC0F2B483DDE9085668
S21408427050462A463346594602F0A6FB02F02AFD67
S214084280804602F011FA2A46334602F073FA0246CE
S2140842900B465046594602F0B9F8079E049F08F1A7
S2140842A03005012E3D7002460B4607F1010564D025
S2140842B00022184B02F05EFA0022002306460F463C
S2140842C002F0C0FC002840F08280CDF828904FF01D
S2140842D0000ADDE908894FF0000B0B9429E000BFBF
S2140842E061436F63A787D23FB3C8608B288AC63FEF
S2140842F0FB799F501344D33F0000F07F7971080084
S2140843009C710800A87108000000F83FE8710800D2
S21408431078710800000024400022814B02F02AFA37
S21408432052465B4606460F4602F08CFC002840F0D4
S214084330BA8342464B463046394602F045FB02F001
S214084340C9FC044602F0B0F942464B4602F012FA9F
S21408435002460B463046394602F058F804F1300655
S21408436005F8016B049E079FAE1BBE4202460B462D
S214084370D2D1A046DDF828900B9C1046194602F0CC
S21408438047F806460F4602460B46DDE9080102F0E6
S21408439063FC48B9DDE9080132463B4602F052FCA8
S2140843A0A8B118F0010F12D015F8018C6B1E049AEC
S2140843B004E09A4200F0028413F8018DB8F1390F30
S2140843C003F10105F5D008F1010883F80080494695
S2140843D0204601F05DFA0022029B2A70269A0133D5
S2140843E01360289B002B00F09F8304981D601BB069
S2140843F0BDE8F08F0B9A002A3ED0249A012A40F393
S2140844001183079B0C9A5F1EBA42C0F29083D71B93
S214084410079B002BC0F28C840A9D079B0A9A0121F1
S2140844201A440A92089A20461A44089201F0CCFACE
S214084430064623E001230E93B5E600230A9A0D9359
S214084440029BD21A5B420A920C93BEE6C7F101039E
S2140844500A9300230893ADE6029D284602F024F945
S21408446002460B46DDE9040102F0ECFB00287FF467
S21408447086AE6B1E029382E60AADE0CD002D0CDDFB
S214084480089900290B4608DDA942A8BF2B460A9AB8
S214084490ED1AD21ACB1A0A9208930C9BD3B10B9B2F
S2140844A0002B00F0B882002F10DD31463A46204631
S2140844B001F026FB4A4601460646204601F08EFADB
S2140844C0034649462046994601F0E2F90C9BDA1B5A
S2140844D040F0A2820121204601F076FA0D9B804624
S2140844E0002B1FDD01461A46204601F009FB249BD7
S2140844F08046012B40F3558200230C93D8F81030E1
S21408450008EB8303186901F00FFAC0F1200013E0E6
S214084510C3F120050AFA05F07BE60E9043E600BFD5
S21408452000002440249B012B40F3858200230C9333
S2140845300D9B0120002BE1D1089A104410F01F00B3
S21408454000F0A180C0F12003042B40F386840A9B68
S214084550C0F11C0003440A93134603440544089319
S2140845600A9B002B05DD49461A46204601F018FB33
S2140845708146089B002B05DD41461A46204601F079
S2140845800FFB80460E9B002B40F08680079B002B77
S21408459040F364820B9B002B00F09880002D05DD0D
S2140845A031462A46204601F0FBFA06460C9B002BAD
S2140845B040F036830896079B049A013BD3180B9362
S2140845C017460AF00103C246DDF820B00C935146A0
S2140845D04846FFF7A9FC31460546484601F030FB39
S2140845E05A4607905146204601F046FBC268804668
S2140845F005F13003002A40F02982014648460A930E
S21408460001F01EFB41460890204601F041F9089A41
S2140846100A9B32B9249921B90C9A002A00F0EE8335
S214084620249A07990029C0F29F8205D1249919B9BE
S2140846300C99002900F09882002A00F305830B9A4B
S21408464007F1010897423B70454600F00B83494640
S21408465000230A22204601F025F95E4581463146A8
S2140846604FF000034FF00A02204600F0E98101F0FF
S21408467019F95946064600230A22204601F012F97F
S21408468047468346A3E71C200A9B054403440A932F
S214084690089B0344089363E74146484601F0D0FA6E
S2140846A00028BFF673AF029F494600230A22204619
S2140846B0013F029701F0F6F80B9B8146002B40F06D
S2140846C0B5830F9B002B40F3BE830793DDF810A03D
S2140846D0079F554606E0494600230A22204601F071
S2140846E0E1F8814641464846FFF71EFC303005F89B
S2140846F0010BA5EB0A03BB42EDDB049B079A824637
S214084700012AACBF9B1801334FF0000B1D464946E3
S2140847100122204601F044FA4146814601F090FA0B
S214084720002840F33F8215F8012C6B1E049904E01C
S2140847308B4200F0AE8113F8012D392A03F10105EA
S214084740F6D001321A704146204601F0A1F8002E34
S2140847503FF43DAEBBF1000F05D0B34503D0594634
S214084760204601F095F83146204601F091F82EE6ED
S21408477000230B93029B259A13440F930133012BB6
S2140847801F461E46B8BF012707930021172F6164EE
S2140847900AD9012204235B0003F11400874211465C
S2140847A002F10102F7D26164204601F04BF80E2EA2
S2140847B0049020643FF647AD002D3FF444AD0299BF
S2140847C0CDE910AB002940F30382B94B01F00F0284
S2140847D00D1103EBC203E906D3E9006740F1AF8188
S2140847E0B44B5046D3E90823594602F0EDF84FF08B
S2140847F0030ACDE9120105F00F058DB1DFF8B48282
S214084800EA0709D5D8E900233046394601F0B2FF51
S21408481006460F460AF1010A6D1008F10808EFD19E
S2140848203B46DDE91201324602F0CEF807468846D6
S2140848300E9B43B10022A04B3846414602F00CFAC4
S214084840002840F08782504601F02EFF3A4643463D
S21408485001F090FF994B002201F0DAFD079B054610
S214084860A1F15076002B00F03F81029B1593079B21
S21408487012930B9B002B00F0FB81129A8C4B0020A6
S21408488003EBC20353E902238D4902F09DF82A463A
S214084890334601F0BBFD82468B463846414602F059
S2140848A019FA054601F000FF02460B46384641460F
S2140848B001F0ACFD30355FFA85F8049D06460F46D4
S2140848C085F8008002460B4650465946013502F0E8
S2140848D0E1F9002854D132463B460020764901F0DB
S2140848E095FD02460B465046594602F0D3F9002875
S2140848F040F07082129A012A00F01281129B049AE4
S214084900CDF84890134499460FE032463B460020BF
S214084910694901F07BFD52465B4602F09DF9002886
S21408492040F056824D4500F0F98050465946002220
S214084930644B01F01FFF0022624B82468B463046CE
S214084940394601F017FF0F46064602F0C3F98046BF
S21408495001F0AAFE02460B463046394601F056FDDF
S21408496008F130085FFA88F805F8018B52465B466E
S21408497006460F4602F070F90028C6D0DDF84890C3
S214084980159B029323E500230B93259B002B40F3EE
S214084990DD801F461E460F930793F6E601230B930A
S2140849A0F3E7BAF1000F7FF4A7ADCBF31303002BA0
S2140849B07FF4BCAD2BF000473F0D3F05002F00F0FD
S2140849C00D820A9B01330A93089B0133089301233F
S2140849D00C93ADE5079B002B3FF748AC40F02282CE
S2140849E0DDE908010022384B01F0C4FE52465B465A
S2140849F002F046F9DDF81C804646002841D0259B83
S214084A00049DDB4302934146204600F041FF002EFA
S214084A103FF4DDACA7E60C9A4946204601F070F84C
S214084A20814657E5149A002A00F0888103F233433A
S214084A300C9F0A9DF2E4BAF1000F7FF477ADB4E755
S214084A4000F030FF474606468346C0E50146204646
S214084A50089300F01DFF0122089BE2E5249B022B29
S214084A607FF798AD079B002BC9D141460522204603
S214084A7000F018FF01468046484601F0E1F8002895
S214084A80BDDD3123029A0499013202920B704D1C47
S214084A90B9E73123029A01320292049A137052E659
S214084AA001230B9366E6DDF828900B9C8FE400BF85
S214084AB0E8710800C07108000000F03F00001C40C4
S214084AC00000E03F0000244000001440504601F07B
S214084AD0EBFD3A46434601F04DFE0022C14B01F07D
S214084AE097FC0546A1F1507641460022BE4B384653
S214084AF001F08CFC2A46334682468B4602F0CAF8FA
S214084B008046002840F010812A4606F100435046A9
S214084B10594602F0A1F818B1464670E7DDF8489005
S214084B20DDE910ABFFF78FBB0498FFF7C0BA0C9B04
S214084B300D9AFB1A1A440C970D92002768E4DDE9D3
S214084B4010234FF0020ACDE9122356E6002101236E
S214084B5020466164259300F075FE259B0490079314
S214084B60259B20640F9327E6002AD046CDF820B070
S214084B709A4611DD49460122204601F011F84146C1
S214084B80814601F05DF8002840F34581BAF1390FF7
S214084B9000F0058105F1310AB34687F800A07D1CB0
S214084BA0089ED0E504D11AF0010F01D0BBE51546E2
S214084BB015F8013C6A1E302BF9D0C4E5302204995A
S214084BC00A70029A15F8018C01320292FFF7FBBBB5
S214084BD000F0BB80DDE91001029B4FF0020A5D423F
S214084BE0824B05F00F0203EBC203D3E9002301F062
S214084BF0C1FD2D11074688463FF41AAE7C4EEB07DA
S214084C0009D5D6E900233846414601F0B3FD0746E4
S214084C1088460AF1010A6D1006F10806EFD107E684
S214084C207168204600F00EFE0546336906F10C0151
S214084C3002339A000C30FDF79DFD294601222046D6
S214084C4000F0AEFF0890B6E4392BCDF820B0D04679
S214084C5000F0A58003F1010AB34687F800A07D1C82
S214084C60089E70E55A46D046B3469A4616464EE51E
S214084C7012985E492A4601EBC001334651E9020103
S214084C8001F078FDCDE916013846414602F022F8D3
S214084C90054601F009FD02460B463846414601F036
S214084CA0B5FB06461298049A3035012815700F464B
S214084CB002F1010526D0129B049ACDF848901344B9
S214084CC04FF0000A9946DFF830B152465B46304648
S214084CD0394601F04FFD0F46064601F0FBFF8046B9
S214084CE001F0E2FC02460B463046394601F08EFBE0
S214084CF008F1300805F8018B4D4506460F46E4D105
S214084D00DDF848900022DDE916013A4B01F080FBF9
S214084D1032463B4601F0A0FF002846D0159B02937A
S214084D2015F8018CFFF742BB4FF000084646A8E688
S214084D300A9B079A9D1A0023FFF770BB189B0C9FC7
S214084D40C3F136030A9DFFF769BBDDE910784FF01B
S214084D50020A6DE5079B002B3FF4B8AE0F9B002BAD
S214084D607FF7DEAE0022244B3846414601F002FDAE
S214084D70074688460AF1010001F096FC3A46434683
S214084D8001F0F8FC0022174B01F042FB029A0F9B39
S214084D90013A05461592A1F15076129369E5392233
S214084DA0B3463A70089E7D1CBFE4DDE91623002052
S214084DB0104901F02BFB32463B4601F06BFF08B961
S214084DC0AEE6154615F8013C6A1E302BF9D0D7E535
S214084DD0DDF84890159B0293FFF7E8BA0C97FFF7A3
S214084DE0A7BB00BF00001C4000001440E871080084
S214084DF0C07108000000E03F00002440392BCDF8C1
S214084E0020B0D046DDF81CB09A46C8D0BBF1000FDB
S214084E103FF7C0AEC0E67FF4BFAE1AF0010F3FF40E
S214084E20BBAEB3E64FF000084646E8E53146002339
S214084E300A22204600F036FD0F9B0646002B07DDAB
S214084E400793FFF7ABBB249B022B1FDC0F9B3CE4AE
S214084E50249B022B1ADC0F9BF2E73FF481ABC0F1D0
S214084E603C0011E4002520466564294600F0EAFC6B
S214084E704FF0FF3307930F93012304902595206482
S214084E800B93FFF7E0B90125FFF7A8B90F9B079327
S214084E90E8E500BF38B50A4C0A4D641BA4100AD0D2
S214084EA004F18043013B05EB8305013C55F80439C2
S214084EB09847002CF9D1BDE8384002F08BBA00BFFD
S214084EC0E4730800E0730800F8B50C46234F06465E
S214084ED000F0ACFCBB68C4F57E615D680F3125F058
S214084EE00305294421F47F6121F00F01A1F58054C0
S214084EF0B4F5805F07DB0021304601F055F9BB6842
S214084F002B44984204D0304600F096FC0020F8BDAA
S214084F106142304601F048F901300DD0104BBA68AE
S214084F2019682D1B45F001053046091B55601960A8
S214084F3000F082FC0120F8BD0021304601F034F96B
S214084F40BA68831A0F2BDEDD064C0549246843F041
S214084F500103001B53600860D5E700BFE006072082
S214084F6064AD0720E80A0720002944D02DE9F0415F
S214084F700D46804600F05AFC55F8047C6949A5F1B0
S214084F80080427F00103E2188E685068B24220F041
S214084F9003005ED0FE0750600BD455F8087C01F17C
S214084FA0080EE41BA5683B4475456DD0E768EF60BE
S214084FB0BD6015186D68ED073ED543F001026260C6
S214084FC0E350B3F5007F17D20122DB0898104D682E
S214084FD0134451F83370824001EBC3002A43083863
S214084FE0E060A7604A6041F83340FC604046BDE890
S214084FF0F04100F021BC70475A0A042A52D89A0990
S21408500002F13907FF0002F13805C819CA590838ED
S21408501090424FD0516821F003018B4232D29268F9
S2140850209042F7D1C368A060E3609C60C4604046C5
S214085030BDE8F04100F000BC95683B4F0344BD4214
S21408504040D0D06843F00102E86085606260E350B3
S214085050B7E7FF07034407D455F8085C641BE26803
S214085060A0682B44C2609060304A43F00100126882
S214085070606093428C60B9D32D4B40461968FFF7A1
S21408508023FFB3E71046CDE711184968C90744D48B
S21408509091680344D26843F00100CA60916060607A
S2140850A0E350A3E7142A16D802F15C07FF0002F1C2
S2140850B05B05AAE70123AA104D6893402B434B6073
S2140850C00346B0E743F001024C610C61E560A56059
S2140850D06260E3508AE7542A06D81A0B02F16F0773
S2140850E0FF0002F16E0590E7B2F5AA7F06D8DA0B44
S2140850F002F17807FF0002F1770586E740F2545080
S214085100824206D89A0C02F17D07FF0002F17C0560
S2140851107BE74FF47E777E2577E743F001016160F1
S214085120136063E7E0060720E8060720EC0A072076
S21408513094AD0720044A054B1268506B002808BF38
S2140851401846F030704700BF400107207405072056
S214085150704700BF704700BF024B0146186800F052
S21408516003B800BF400107202DE9F04F01F10B06F8
S214085170162E83B0054640F29E8036F0070600F1EC
S214085180BD80B14200F2BA8000F050FBB6F5FC7F55
S214085190C0F08582730A00F0B880042B00F26C8198
S2140851A0B30903F1390003F1380EC100B84F39448A
S2140851B04C680839A14206D10CE0002A80F2AB8080
S2140851C0E468A14206D0636823F003039A1B0F2AFB
S2140851D0F3DD70463C69DFF8CCE2744500F09E814A
S2140851E0636823F003039A1B0F2A00F38381002ABF
S2140851F0C7F814E0C7F810E080F29180B3F5007F96
S21408520080F054810122DB0879684FEAA30C134426
S21408521057F8338002FA0CF207EBC30C0A43ACF1DA
S2140852200801E160C4F808807A6047F83340C8F897
S2140852300C40012483109C4094427DD8144206D129
S21408524020F003006400144200F10400FAD007EBD3
S214085250C009CC468046DCF80C309C4507D15FE197
S214085260002A80F26D81DB689C4500F059815968F8
S21408527021F003018A1B0F2AF2DDDC68D3F808C088
S21408528046F0010828461E4442F00105C3F804808B
S214085290CCF80C40C4F808C07E613E61C6F80CE045
S2140852A0C6F808E075605A50009300F0C5FA009BEF
S2140852B003F108041EE0102920D800F0B7FA1026DB
S2140852C018230220724F3B445C68A3F108029442FC
S2140852D000F02F816368E16823F0030323445A68CB
S2140852E0A66842F00102F16028468E605A6000F017
S2140852F0A3FA0834204603B0BDE8F08F00240C2338
S21408530020462B6003B0BDE8F08F40204FF40071B4
S2140853104FF03F0E4AE723445A68E168E0E7234423
S2140853205A68284642F001025A60083400F084FAA7
S214085330204603B0BDE8F08FBC68636823F0030816
S214085340B04504D3A8EB06030F2B00F38580DFF8DF
S2140853505891504BD9F800201B680132334404EBAF
S214085360080A00F0548103F580530F3323F47F6B4B
S2140853702BF00F0B5946284600F016FF411C024634
S21408538000F0FB80824500F2F680434B19685944CA
S214085390196000F04C81D9F8000001301BBFA2EB61
S2140853A00A0A5144C9F80020196012F0070100F0F3
S2140853B01481C1F10800C1F580510244083102EB9E
S2140853C00B09C9F30B09A1EB0909494628460193BD
S2140853D0009200F0E9FE431C9DE80C0000F04281B4
S2140853E0801A484440F001001968BC424944BA6033
S2140853F01960506017D0B8F10F0F40F2FA804FF0DE
S214085400050C6268A8F10C0020F0070002F0010203
S21408541004EB000E02430F286260CEF804C0CEF8F4
S21408542008C000F216811D4BBC681A68914288BFF6
S21408543019601B4B1A689142626888BF196022F08F
S21408544003029642A2EB060301D80F2B04DC28467B
S21408545000F0F2F900244DE746F0010243F001039C
S214085460264462602846BE600834736000F0E4F99B
S214085470204603B0BDE8F08F142B70D9542B00F2E9
S214085480A280330B03F16F0003F16E0EC1008DE6A8
S214085490E006072094AD072064AD07208CAD0720F2
S2140854A090AD0720E8060720E80A07205A0A042ACB
S2140854B05BD9142A00F2AE8002F15C01C9005B32A7
S2140854C007EB010C7958ACF1080C8C4500F0888085
S2140854D04A6822F00302934273D289688C45F7D152
S2140854E0DCF80C307A68E360C4F808C09C60CCF836
S2140854F00C409EE646F0010C42F001012644C4F832
S21408550004C028467E613E61C6F80CE0C6F808E08E
S2140855107160E25000F090F90834EBE67A6888E6A5
S21408552008F1010818F0030F0CF1080C7FF493AE8D
S2140855302DE0DC68A34208BF02303FF44BAEC9E654
S2140855401C4619444A68DB6854F8086F42F00102A2
S2140855504A602846F3609E6000F06EF9CAE603F1DA
S2140855605C0003F15B0EC10020E69A0902F13901DE
S214085570C9003832A4E7BC4254D0BC68626822F03E
S21408558003025EE759F80839994540F0868010F01E
S214085590030F00F1FF30F5D17B6823EA04037B6034
S2140855A064009C423FF6C8AE002C3FF4C5AE1C42D1
S2140855B040467FF44CAE64001C4200F10400FAD06A
S2140855C045E68C468CE7B3F5AA7F15D8F30B03F1AE
S2140855D0780003F1770EC100E8E54FF48051EEE657
S2140855E001217B68921001FA02F21A437A60634638
S2140855F079E7012353602AE740F25452934222D8AF
S214085600B30C03F17D0003F17C0EC100CEE503F177
S214085610100BAFE6542A29D81A0B02F16F01C900FD
S2140856206E324DE7204B196859441960B3E6CAF341
S2140856300B0000287FF4AFAE08EB0B03BA6843F004
S21408564001035360EFE67F204FF47E714FF07E0E25
S214085650ACE504F1080128460093FFF785FC009B9B
S2140856601968E0E601204FF00009BDE6B2F5AA7F0A
S21408567005D8DA0B02F17801C900773220E740F244
S21408568054518A4205D89A0C02F17D01C9007C3231
S21408569016E74FF47E717E2212E77B6880E7F008F3
S2140856A006F108030EE600BF64AD072082B049B1D4
S2140856B05AB16BB113780B601278101C18BF012012
S2140856C002B0704701A9002AF3D1104602B070470D
S2140856D06FF00100F4E700BF830770B4CDB23DD089
S2140856E0541E0AB30378AB421FD0431C05E014F1DE
S2140856F0FF3419D30278AA4217D013F0030F1846BE
S21408570003F10103F3D1032C11D84CB30378AB4251
S2140857100BD00444431C02E00278AA4205D09C42FF
S214085720184603F10103F7D1002070BC7047090240
S21408573089B2294341EA0141036806464B40A3F172
S214085740013222EA030313F0803F00F1040003D17C
S214085750043C032CF0D8D8E73046D7E71446D2E7FF
S2140857602046E2E78842F0B50DD98B1898420AD24F
S2140857708418002A51D0224613F8014D994202F89F
S214085780014DF9D1F0BD0F2A48D941EA00039B071D
S21408579046D1154600F1100401F1100353F8106CB9
S2140857A0103D44F8106C53F80C6C0F2D44F80C6C34
S2140857B053F8086C04F1100444F8186C53F8046C99
S2140857C003F1100344F8146CE8D8A2F1100323F090
S2140857D00F0302F00F0E1033BEF1030F19440344F3
S2140857E021D90E4674461D1F56F8047B043C032C2C
S2140857F045F8047FF8D8AEF1040424F00304043412
S2140858002144234402F0030262B1013B0A4411F822
S214085810014B8A4203F8014FF9D1F0BD0346F3E77E
S2140858200346F2E7F0BD7246EEE700BF0148FFF711
S2140858308FBC00BFB0AD07200148FFF78BBC00BF88
S214085840B0AD0720C36C70B505460C464BB153F88F
S214085850240080B1026843F8242000230361C36053
S21408586070BD2122042100F09DFDE864034600284F
S214085870EDD1002070BD012101FA04F6721D2846FC
S214085880920000F08FFD0028F3D044608660E4E7BD
S21408589031B1C36C4A6853F82200086043F82210F6
S2140858A0704700BFF0B50C4605464FF0000E0E696F
S2140858B083B001F1140738680EF1010E81B202FBBD
S2140858C00133010C180C02FB01019BB203EB0143E8
